:020000040000FA
:0600000093EF2CF012004A
:020006001200E6
:080008009EA402D06AEF1CF077
:100010009EAA02D07BEF20F09EA804D09DA802D01B
:060020007CEF20F012004D
:0A00260003009C590000120E0000B8
:100030000400000084590000C808000018000000F7
:0C00400073590000E008000011000000EF
:04004C00D9CFE6FF23
:10005000DACFE6FFE1CFD9FFE2CFDAFFE652E65290
:10006000E652E652E652F10EDBCFE6FFF20EDBCFB0
:10007000E6FFF80EDBCFE6FFF90EDBCFE6FF1CEC68
:100080000CF0E552E552E552E552DE52F3CFDEFFC9
:10009000F4CFDDFFDD52D950010FE96E000EDA20FA
:1000A000EA6EEE50ED1001E11ED1010EDBCFE9FF4B
:1000B000020EDBCFEAFF170EE926000EEA22030E3E
:1000C000EECFDBFF040EEDCFDBFFF80EDBCF12F03F
:1000D000F90EDBCF13F01206000E135A010EDBCF20
:1000E000E9FF020EDBCFEAFF170EE926000EEA2237
:1000F0001250EE24106E1350EE20116E010EDBCF65
:10010000E9FF020EDBCFEAFF1D0EE926000EEA2210
:1001100010C0EEFF11C0EDFFF80EDBCFE6FFF90EC9
:10012000DBCFE6FFEF0EDBCFE6FFF00EDBCFE6FF27
:10013000F50EDBCFE6FFFA0EDBCFE6FFFB0EDBCFE3
:10014000E6FF010EDBCFE6FF020EDBCFE6FF1BEC86
:100150000AF0106E090EE15C02E2E16AE552E16E1E
:100160001050F60EDBCFE6FFF70EDBCFE6FFFC0EFE
:10017000DBCFE6FFFD0EDBCFE6FF030EDBCFE6FFB6
:10018000040EDBCFE6FFA0EC18F0126E060EE15C69
:1001900002E2E16AE552E16E1250F3CF10F0F4CFC3
:1001A00011F0010EDBCFE9FF020EDBCFEAFF10C03A
:1001B000EEFF11C0EDFFD950F30FE96EFF0EDA200C
:1001C000EA6EEE50ED100DE0F30EDBCFE9FFF40E1A
:1001D000DBCFEAFF010EDBCFEEFF020EDBCFEDFF40
:1001E00000D0F250E66EF29E0801E52B0801E051C6
:1001F000E1110DE1010EDBCFE0F8020EDBCFE1F8FB
:100200000801E50503E1FCEC0AF000D017D0080175
:10021000E95114E1E0C8E9FFE1C8EAFF160EEB502E
:10022000106EF50EDB50D880105407E3010EDBCFC3
:10023000E0F8020EDBCFE1F800D000D00801ED2B92
:10024000010EDBCFE9FF020EDBCFEAFF160EE92637
:10025000000EEA22EFCF10F00801E851D8801054C8
:100260000CE2010EDBCFE9FF020EDBCFEAFF160E38
:10027000E926000EEA22EFCFE8F8010EDBCFE9FF16
:10028000020EDBCFEAFF020EE926000EEA22E9CFDA
:1002900010F0EACF11F010C0E6FF11C0E6FF010E2A
:1002A000DBCFE9FF020EDBCFEAFF160EE926000ED8
:1002B000EA22EF50090DF3CF12F0F4CF13F0600EE5
:1002C0001226080E132212C0E6FF13C0E6FF73ECDD
:1002D0001EF0E552E552E552E552010EDF6EE552A1
:1002E000E7BEF28E01D0DF68DF0412E10801E951B8
:1002F0000FE0E0C8E9FFE1C8EAFF160EEB50106E10
:10030000F50EDB50105C03E268EC1BF000D000D06F
:10031000DF5000D0106E050EE15C02E2E16AE552AA
:10032000E16E1050E552E5CFDAFFE7CFD9FF1200BA
:10033000D9CFE6FFDACFE6FFE1CFD9FFE2CFDAFF90
:10034000E652E652F250E66EF29ED950FC0FE96E8C
:10035000FF0EDA20EA6EEE50ED1005E1E0C810F075
:10036000E1C811F006D0FC0EDBCF10F0FD0EDBCFA4
:1003700011F010C0DEFF11C0DDFFDECFE9FFDDCFE1
:10038000EAFF020EE926000EEA22E9CF10F0EACFDA
:1003900011F010C0E6FF11C0E6FFD5EC1FF0E552EA
:1003A000E552000901E100D0DECFE9FFDDCFEAFF31
:1003B0000C0EE926000EEA22080EE926000EEA22BB
:1003C000EE50ED1015E0DECFE9FFDDCFEAFF0C0EB9
:1003D000E926000EEA22E9CF10F0EACF11F010C0B2
:1003E000E6FF11C0E6FFD5EC1FF0E552E55200D064
:1003F000DECFE9FFDDCFEAFF020EE926000EEA229A
:10040000E9CF10F0EACF11F010C0E6FF11C0E6FF0F
:10041000A30EE66E080EE66E73EC1EF0E552E55292
:10042000E552E5520801E22B0801ED2BE552E7BE4B
:10043000F28E0801E95116E0DECF10F0DDCF11F0A9
:100440000801E051101802E1E151111803E168ECD4
:100450001BF008D0F250E66EF29EC7EC0CF0E552AD
:10046000E7BEF28EE552E552E552E5CFDAFFE7CF7F
:10047000D9FF1200D9CFE6FFDACFE6FFE1CFD9FFEF
:10048000E2CFDAFF060EE12402E3E168E652E16E14
:10049000030EDB6A6CD9040EE6C8DBFF050EE7C865
:1004A000DBFFFA0EDBCF12F0FB0EDBCF13F0FC0EFE
:1004B000DBCFE9FFFD0EDBCFEAFF1250EE24106E1A
:1004C0001350EE20116E10C0DEFF11C0DDFF040ED0
:1004D000DBCF10F0050EDBCF11F0FC0EDBCFE9FF18
:1004E000FD0EDBCFEAFFEECF12F0EFCF13F012508C
:1004F000105C1350115829E2DECF10F0DDCF11F05F
:10050000FC0EDBCFE9FFFD0EDBCFEAFFEECF12F0F2
:10051000EFCF13F01250105C1350115815E2DECFDC
:1005200014F0DDCF15F0040EDBCF16F0050EDBCF97
:1005300017F01450165C1550175806E2010EF36EB2
:10054000030EF3CFDBFF00D028D0DECF10F0DDCFDD
:1005500011F0FC0EDBCFE9FFFD0EDBCFEAFFEECFA3
:1005600012F0EFCF13F01250105C135011580FE33C
:10057000DECF14F0DDCF15F0040EDBCF16F0050E44
:10058000DBCF17F01450165C1550175806E2010E19
:10059000F36E030EF3CFDBFF00D0FC0EDBCFE9FFE1
:1005A000FD0EDBCFEAFFDECFEEFFDDCFEDFF030E6A
:1005B000DB5020E0E0C8E9FFE1C8EAFF020EE926CF
:1005C000000EEA22E9CF10F0EACF11F010C0E6FFEA
:1005D00011C0E6FFD5EC1FF0E552E552000901E13C
:1005E00000D0DECFE6FFDDCFE6FFACEC0BF0E5524E
:1005F000E55200D0BFD8E76E020EE7CFDBFF020E58
:10060000DB5003E168EC1BF000D0060EE15C02E277
:10061000E16AE552E16EE552E5CFDAFFE7CFD9FFB7
:100620001200D9CFE6FFDACFE6FFE1CFD9FFE2CF64
:10063000DAFFE652E652E652020EDB6AD950FC0FB0
:10064000E96EFF0EDA20EA6E000ED880EE54000E3E
:10065000ED5436E28CD8FC0EDB500801E625000193
:10066000106EFD0EDB500801E7210001116E10C075
:10067000DEFF11C0DDFFE0C8E9FFE1C8EAFF020EBE
:10068000E926000EEA22E9CF10F0EACF11F010C0FF
:10069000E6FF11C0E6FFD5EC1FF0E552E552000978
:1006A00001E100D0DECFE6FFDDCFE6FFACEC0BF0E2
:1006B000E552E5525FD8E76E020EE7CFDBFF00D0D0
:1006C000020EDB5003E168EC1BF000D0E552E5526E
:1006D000E552E552E5CFDAFFE7CFD9FF1200D9CFD7
:1006E000E6FFDACFE6FFE1CFD9FFE2CFDAFFE6524D
:1006F000000EE66EE66A000EE66EE66AE30EE66E51
:10070000080EE66EE66A000EE66EE66ADC0EE66E3F
:10071000E66A5C0EE66E590EE66E080EE66E140E84
:10072000E66E94DC106E0F0EE15C02E2E16AE552C7
:10073000E16E1050DF6EDF040DE1F29E0801010E44
:10074000E96F0801E66BE76BE2EC1AF0000901E0E3
:1007500000D000D0E552E552E5CFDAFFE7CFD9FF70
:100760001200F29E0801E96B67EC1BF01200080111
:10077000F02B1200D9CFE6FFDACFE6FFE1CFD9FFA9
:10078000E2CFDAFFE652E652E652020EDB6AF250A0
:10079000E66EF29E0801F0070801F05101E0B8D0C2
:1007A0000801E551000801E3B2D008019A5101E1C6
:1007B00090D09FC8E9FFA0C8EAFF060EE926000E08
:1007C000EA22EECFDEFFEDCFDDFFDECFE9FFDDCFAA
:1007D000EAFF0C0EE926000EEA22E9CF10F0EACF7C
:1007E00011F010C0E6FF11C0E6FFD5EC1FF0E55296
:1007F000E552DECFE9FFDDCFEAFF020EE926000E6B
:10080000EA22E9CF10F0EACF11F010C0E6FF11C0E4
:10081000E6FFD5EC1FF0E552E552DECFE9FFDDCF74
:10082000EAFF160EE926000EEA22EFCF10F00801CB
:10083000E851D88010540AE2DECFE9FFDDCFEAFFAD
:10084000160EE926000EEA22EFCFE8F8DECFE9FF28
:10085000DDCFEAFF020EE926000EEA22E9CF10F012
:10086000EACF11F010C0E6FF11C0E6FFDECFE9FFCE
:10087000DDCFEAFF160EE926000EEA22EF50090D41
:10088000F3CF12F0F4CF13F0600E1226080E1322ED
:1008900012C0E6FF13C0E6FF73EC1EF0E552E5520E
:1008A000E552E552DECFE9FFDDCFEAFF160EE9267D
:1008B000000EEA22EFCF10F0E0C8E9FFE1C8EAFF3E
:1008C000160EEB50105C04E30801010EEB6F00D034
:1008D0006CD70801EA5100080FE20801EA5100084C
:1008E0000AE277D8000904E00801010EEB6F00D09E
:1008F0000801EA07F2D700D00801EB0508E1010E74
:10090000F36E020EF3CFDBFF68EC1BF000D000D0DB
:10091000E552E7BEF28E020EDB5000D0E552E55202
:10092000E552E552E5CFDAFFE7CFD9FF1200D9CF84
:10093000E6FFDACFE6FFE1CFD9FFE2CFDAFFE652FA
:10094000E652F250E66EF29EE6C8DEFFE7C8DDFF33
:10095000E552E7BEF28EDECF10F0DDCF11F010C011
:10096000F3FF11C0F4FF00D0E552E552E552E5CFA8
:10097000DAFFE7CFD9FF1200D9CFE6FFDACFE6FFE3
:10098000E1CFD9FFE2CFDAFFE652E652E652020E9D
:10099000DB6AE6C8DEFFE7C8DDFFDECF10F0DDCFA3
:1009A00011F010C0F3FF11C0F4FF00D0E552E55282
:1009B000E552E552E5CFDAFFE7CFD9FF1200080193
:1009C000E55100D01200E3C8F3FFE4C8F4FF00D003
:1009D0001200D9CFE6FFDACFE6FFE1CFD9FFE2CFB1
:1009E000DAFF090EE12402E3E168E652E16E040E4B
:1009F000DB6A0801F05101E035D10801E62B000E59
:100A0000E723050EE6C8DBFF060EE7C8DBFFD9507B
:100A1000050FE96E000EDA20EA6EEE50ED1015E1DA
:100A2000070E96C8DBFF080E97C8DBFF98C896F83C
:100A300099C897F8070EDBCF98F8080EDBCF99F826
:100A40000801EC2BC7EC0CF000D0050EDBCF10F04A
:100A5000060EDBCF11F00801EE51105CEF5111587A
:100A600001E2E1D096C8E9FF97C8EAFFEF5000091C
:100A700005E10801EE69EF69D6D0D4D096C8E9FF48
:100A800097C8EAFF030EE926000EEA22020EE926C5
:100A9000000EEA22EE50EFCFEAFFE96E060EE926DD
:100AA000000EEA22EECFDEFFEDCFDDFFDECFE9FF65
:100AB000DDCFEAFF020EE926000EEA22020EEECF9B
:100AC000DBFF030EEDCFDBFF050EDBCF10F0060ED4
:100AD000DBCF11F0020EDBCF12F0030EDBCF13F0F1
:100AE0001250105C1350115808E2020EDBCFEEF8E2
:100AF000030EDBCFEFF897D000D0DECFE9FFDDCFDC
:100B0000EAFF020EE926000EEA22E9CF10F0EACF52
:100B100011F010C0E6FF11C0E6FFD5EC1FF0E55262
:100B2000E552DECFE9FFDDCFEAFF0C0EE926000E2D
:100B3000EA22080EE926000EEA22EE50ED1015E03A
:100B4000DECFE9FFDDCFEAFF0C0EE926000EEA2238
:100B5000E9CF10F0EACF11F010C0E6FF11C0E6FFB8
:100B6000D5EC1FF0E552E55200D0DECFE9FFDDCF36
:100B7000EAFF160EE926000EEA22EFCF10F0080178
:100B8000E851D88010540AE2DECFE9FFDDCFEAFF5A
:100B9000160EE926000EEA22EFCFE8F8DECFE9FFD5
:100BA000DDCFEAFF020EE926000EEA22E9CF10F0BF
:100BB000EACF11F010C0E6FF11C0E6FFDECFE9FF7B
:100BC000DDCFEAFF160EE926000EEA22EF50090DEE
:100BD000F3CF12F0F4CF13F0600E1226080E13229A
:100BE00012C0E6FF13C0E6FF73EC1EF0E552E552BB
:100BF000E552E552DECFE9FFDDCFEAFF160EE9262A
:100C0000000EEA22EFCF10F0E0C8E9FFE1C8EAFFEA
:100C1000160EEB50105C06E3010EF36E040EF3CFDC
:100C2000DBFF00D01FD7E0C8E9FFE1C8EAFF160EDE
:100C3000EB50090DF3CFE9FFF4CFEAFF600EE92690
:100C4000080EEA22EF50010806E2010EF36E040ED0
:100C5000F3CFDBFF00D00801EA5103E1E7EC29F014
:100C600000D004D00801EA2BE7EC29F00801EB5191
:100C700006E0010EF36E040EF3CFDBFF00D0040E8E
:100C8000DB5000D0106E090EE15C02E2E16AE55231
:100C9000E16E1050E552E5CFDAFFE7CFD9FF120041
:100CA000D9CFE6FFDACFE6FFE1CFD9FFE2CFDAFF17
:100CB000E652E6520801F05104E00801010EEB6F24
:100CC00081D00801EB6B0801E851090DF3CFE9FF72
:100CD000F4CFEAFF600EE926080EEA22EF5003E1A6
:100CE0000801E807F0D70801E851090DF3CF10F02B
:100CF000F4CF11F0600E1026080E112210C0DEFF96
:100D000011C0DDFFDECFE9FFDDCFEAFFEE52EE508E
:100D1000EFCFEAFFE96E020EE926000EEA22EECFDF
:100D200010F0EFCF11F0DECFE9FFDDCFEAFFEE529A
:100D300010C0EEFF11C0EDFFDECFE9FFDDCFEAFF0F
:100D4000EE52EECF10F0EFCF11F0DECFE9FFDDCFA6
:100D5000EAFF030EE926000EEA22E9CF12F0EACFFD
:100D600013F01250101802E1135011181AE1DECFDF
:100D7000E9FFDDCFEAFFEE52EE50EFCFEAFFE96E7A
:100D8000020EE926000EEA22EECF10F0EFCF11F0AE
:100D9000DECFE9FFDDCFEAFFEE5210C0EEFF11C05B
:100DA000EDFFDECFE9FFDDCFEAFFEE52EE50EFCFF1
:100DB000EAFFE96E060EE926000EEA22EECFE0F821
:100DC000EDCFE1F8E552E552E552E5CFDAFFE7CFA6
:100DD000D9FF1200D9CFE6FFDACFE6FFE1CFD9FF86
:100DE000E2CFDAFFE652E652E0C8E9FFE1C8EAFFE7
:100DF0000C0EE926000EEA22E9CF10F0EACF11F03E
:100E000010C0E6FF11C0E6FFFC0EDBCFE6FFFD0ED3
:100E1000DBCFE6FFF3EC1EF0E552E552E552E5527A
:100E2000E0C8E9FFE1C8EAFF020EE926000EEA2267
:100E3000E9CF10F0EACF11F010C0E6FF11C0E6FFD5
:100E4000D5EC1FF0E552E552000901E100D0FA0EA1
:100E5000DB500801E6250001106EFB0EDB50080197
:100E6000E7210001116E10C0DEFF11C0DDFFDECFF3
:100E7000E6FFDDCFE6FFACEC0BF0E552E552E552C4
:100E8000E552E552E5CFDAFFE7CFD9FF1200D9CF1F
:100E9000E6FFDACFE6FFE1CFD9FFE2CFDAFFE65295
:100EA000E652FA0EDBCF10F0FB0EDBCF11F0105044
:100EB000800E1112E0C8E9FFE1C8EAFF0C0EE92636
:100EC000000EEA2210C0EEFF11C0EDFFE0C8E9FFFE
:100ED000E1C8EAFF0C0EE926000EEA22E9CF10F085
:100EE000EACF11F010C0E6FF11C0E6FFFC0EDBCF29
:100EF000E6FFFD0EDBCFE6FF73EC1EF0E552E55298
:100F0000E552E552E0C8E9FFE1C8EAFF020EE92632
:100F1000000EEA22E9CF10F0EACF11F010C0E6FF90
:100F200011C0E6FFD5EC1FF0E552E552000901E1E2
:100F300000D0F80EDB500801E6250001106EF90E16
:100F4000DB500801E7210001116E10C0DEFF11C067
:100F5000DDFFDECFE6FFDDCFE6FFACEC0BF0E552C8
:100F6000E552E552E552E552E5CFDAFFE7CFD9FF8A
:100F70001200D9CFE6FFDACFE6FFE1CFD9FFE2CF0B
:100F8000DAFFE652E652E652FC0EDBCFE9FFFD0E39
:100F9000DBCFEAFF030EE926000EEA22020EE92665
:100FA000000EEA22EE50EFCFEAFFE96E060EE926C8
:100FB000000EEA22EECFDEFFEDCFDDFFDECFE9FF50
:100FC000DDCFEAFF0C0EE926000EEA22E9CF10F091
:100FD000EACF11F010C0E6FF11C0E6FFD5EC1FF01C
:100FE000E552E5520801F0515AE1DECFE9FFDDCFCD
:100FF000EAFF020EE926000EEA22E9CF10F0EACF5E
:1010000011F010C0E6FF11C0E6FFD5EC1FF0E5526D
:10101000E552DECFE9FFDDCFEAFF160EE926000E2E
:10102000EA22EFCF10F00801E851D88010540AE20C
:10103000DECFE9FFDDCFEAFF160EE926000EEA2239
:10104000EFCFE8F8DECFE9FFDDCFEAFF020EE926B9
:10105000000EEA22E9CF10F0EACF11F010C0E6FF4F
:1010600011C0E6FFDECFE9FFDDCFEAFF160EE9266D
:10107000000EEA22EF50090DF3CF12F0F4CF13F077
:10108000600E1226080E132212C0E6FF13C0E6FF00
:1010900073EC1EF0E552E552E552E5521AD0DECF70
:1010A000E9FFDDCFEAFF0C0EE926000EEA22E9CFC8
:1010B00010F0EACF11F010C0E6FF11C0E6FF9A0E63
:1010C000E66E080EE66E73EC1EF0E552E552E55250
:1010D000E552DECFE9FFDDCFEAFF160EE926000E6E
:1010E000EA22EFCF10F0E0C8E9FFE1C8EAFF160EF0
:1010F000EB50D880105409E2010EF36E020EF3CFCC
:10110000DBFF0801010EEB6F02D0020EDB6A020E5C
:10111000DB5000D0E552E552E552E552E5CFDAFF6B
:10112000E7CFD9FF1200D9CFE6FFDACFE6FFE1CF54
:10113000D9FFE2CFDAFFE652E652E652FA0EDBCFF3
:1011400010F0FB0EDBCF11F01050800E1112FC0ED0
:10115000DBCFE9FFFD0EDBCFEAFF10C0EEFF11C0D1
:10116000EDFFFC0EDBCFE9FFFD0EDBCFEAFF060E45
:10117000E926000EEA22EECFDEFFEDCFDDFFFC0E0A
:10118000DBCFE6FFFD0EDBCFE6FFD5EC1FF0E5522F
:10119000E552DECFE9FFDDCFEAFF020EE926000EC1
:1011A000EA22E9CF10F0EACF11F010C0E6FF11C03B
:1011B000E6FFD5EC1FF0E552E552DECFE9FFDDCFCB
:1011C000EAFF160EE926000EEA22EFCF10F0080122
:1011D000E851D88010540AE2DECFE9FFDDCFEAFF04
:1011E000160EE926000EEA22EFCFE8F8DECFE9FF7F
:1011F000DDCFEAFF020EE926000EEA22E9CF10F069
:10120000EACF11F010C0E6FF11C0E6FFDECFE9FF24
:10121000DDCFEAFF160EE926000EEA22EF50090D97
:10122000F3CF12F0F4CF13F0600E1226080E132243
:1012300012C0E6FF13C0E6FF73EC1EF0E552E55264
:10124000E552E552DECFE9FFDDCFEAFF160EE926D3
:10125000000EEA22EFCF10F0E0C8E9FFE1C8EAFF94
:10126000160EEB50D880105409E2010EF36E020EF8
:10127000F3CFDBFF0801010EEB6F02D0020EDB6A39
:10128000020EDB5000D0E552E552E552E552E5CFC3
:10129000DAFFE7CFD9FF1200D9CFE6FFDACFE6FFBA
:1012A000E1CFD9FFE2CFDAFFFC0EDBCFE9FFFD0E85
:1012B000DBCFEAFFECC8EFFFFC0EDBCFE9FFFD0E52
:1012C000DBCFEAFFEE52E6C8EEFFE7C8EDFFE552DE
:1012D000E5CFDAFFE7CFD9FF1200D9CFE6FFDACFAB
:1012E000E6FFE1CFD9FFE2CFDAFFE652E652E6525F
:1012F000F250E66EF29E010EE6C8DBFF020EE7C872
:10130000DBFFFC0EDBCFE9FFFD0EDBCFEAFFEF508A
:101310000801EC5D1BE0010EDBCF10F0020EDBCF0D
:1013200011F0FC0EDBCFE9FFFD0EDBCFEAFFEECFC5
:1013300012F0EECF13F0EFCF14F000011350105C59
:101340001450115803E3010EDF6E4CD0010EDBCFB9
:1013500012F0020EDBCF13F0FC0EDBCFE9FFFD0E27
:10136000DBCFEAFFEE52EE50125C106EEE501358D7
:10137000116EFA0EDBCFE9FFFB0EDBCFEAFFEECFFB
:1013800014F0EFCF15F01450105C1550115828E2EE
:10139000010EDBCF12F0020EDBCF13F0FC0EDBCF21
:1013A000E9FFFD0EDBCFEAFFEE52EE50125C106E4D
:1013B000EE501358116EFA0EDBCFE9FFFB0EDBCFB8
:1013C000EAFF1050EE5E1150ED5AFC0EDBCFE6FF47
:1013D000FD0EDBCFE6FF60DFE552E552DF6A02D0AB
:1013E000010EDF6EE552E7BEF28EDF5000D0E5520F
:1013F000E552E552E552E5CFDAFFE7CFD9FF12001B
:101400000801010EEB6F1200D9CFE6FFDACFE6FF3D
:10141000E1CFD9FFE2CFDAFF41D9080160510108DD
:1014200003E268EC1BF000D0F7D7E552E5CFDAFF16
:10143000E7CFD9FF1200D9CFE6FFDACFE6FFE1CF41
:10144000D9FFE2CFDAFFE652DF6A040EDF5C38E252
:10145000DF50E76EFA0EDBCFE9FFFB0EDBCFEAFFD2
:10146000E750E926000EEA22EF50E66EFC0EDBCFD5
:10147000E9FFFD0EDBCFEAFF190EE926000EEA2296
:10148000E9CF10F0EACF11F0DF500F011024E96E20
:10149000000E1120EA6EE552E750EF6EDF50E76E66
:1014A000FA0EDBCFE9FFFB0EDBCFEAFFE750E926C0
:1014B000000EEA22EF5002E103D000D0DF2AC5D7A8
:1014C000FC0EDBCFE9FFFD0EDBCFEAFF190EE926AC
:1014D000000EEA22030EE926000EEA22EF6A040E4D
:1014E000F36EF90EDBCFF4FFF350F45C06E3030E6A
:1014F000F36EF90EF3CFDBFF00D0FC0EDBCFE9FF7C
:10150000FD0EDBCFEAFF160EE926000EEA22F90EE9
:10151000DBCFEFFFFC0EDBCFE9FFFD0EDBCFEAFFF9
:10152000020EE926000EEA22E9CF10F0EACF11F010
:1015300010C0E6FF11C0E6FF5BEC1EF0E552E5527D
:10154000FC0EDBCFE9FFFD0EDBCFEAFF0C0EE92638
:10155000000EEA22E9CF10F0EACF11F010C0E6FF4A
:1015600011C0E6FF5BEC1EF0E552E552FC0EDBCF4E
:10157000E9FFFD0EDBCFEAFF020EE926000EEA22AC
:10158000060EE926000EEA22FC0EDBCFEEFFFD0E72
:10159000DBCFEDFFF90EDB50106E116A040ED88020
:1015A0001056000E1156FC0EDBCFE9FFFD0EDBCF0F
:1015B000EAFF0C0EE926000EEA2210C0EEFF11C071
:1015C000EDFFFC0EDBCFE9FFFD0EDBCFEAFF0C0EDB
:1015D000E926000EEA22060EE926000EEA22FC0E9B
:1015E000DBCFEEFFFD0EDBCFEDFFE552E552E5CFA1
:1015F000DAFFE7CFD9FF1200D9CFE6FFDACFE6FF57
:10160000E1CFD9FFE2CFDAFFE652DF6A040EDF5CFA
:1016100014E2DF50090DF3CF10F0F4CF11F0600E9B
:101620001026080E112210C0E6FF11C0E6FFE1EC03
:101630001DF0E552E552DF2AE9D7840EE66E080E6A
:10164000E66EE1EC1DF0E552E5528D0EE66E080EF9
:10165000E66EE1EC1DF0E552E5529A0EE66E080EDC
:10166000E66EE1EC1DF0E552E552A30EE66E080EC3
:10167000E66EE1EC1DF0E552E5520801840E966F2E
:10168000080E976F08018D0E986F080E996FE5523E
:10169000E552E5CFDAFFE7CFD9FF1200D9CFE6FF59
:1016A000DACFE6FFE1CFD9FFE2CFDAFFE652E6522A
:1016B000E6520801E251000846E2B7EC03F00801E7
:1016C000A35102E0000E01D0010EDF6EBAEC03F070
:1016D000DF5038E1F250E66EF29EA8C8E9FFA9C8D3
:1016E000EAFF060EE926000EEA22010EEECFDBFF2E
:1016F000020EEDCFDBFF010EDBCFE9FF020EDBCFE9
:10170000EAFF020EE926000EEA22E9CF10F0EACF46
:1017100011F010C0E6FF11C0E6FFD5EC1FF0E55256
:10172000E5520801E5070801E207E552E7BEF28E3F
:10173000010EDBCFE6FF020EDBCFE6FFFED8E5525F
:10174000E55200D0B6D7E552E552E552E552E5CF75
:10175000DAFFE7CFD9FF1200D9CFE6FFDACFE6FFF5
:10176000E1CFD9FFE2CFDAFFE0C8E9FFE1C8EAFF45
:10177000020EE926000EEA22FC0EDBCFEEFFFD0E84
:10178000DBCFEDFFFC0EDBCF10F0FD0EDBCF11F059
:101790000801E651105CE75111581BE2E0C8E9FF6F
:1017A000E1C8EAFF020EE926000EEA22E9CF10F0B6
:1017B000EACF11F010C0E6FF11C0E6FF98C8E6FFBF
:1017C00099C8E6FFF3EC1EF0E552E552E552E5520A
:1017D0002DD0E0C8E9FFE1C8EAFF020EE926000EBD
:1017E000EA22E9CF10F0EACF11F010C0E6FF11C0F5
:1017F000E6FF96C8E6FF97C8E6FFF3EC1EF0E55259
:10180000E552E552E552FC0EDBCF10F0FD0EDBCFCA
:1018100011F00801EE51105CEF51115807E2FC0E77
:10182000DBCFEEF8FD0EDBCFEFF800D0E552E5CFD1
:10183000DAFFE7CFD9FF1200D9CFE6FFDACFE6FF14
:10184000E1CFD9FFE2CFDAFFE652E652E652E652A6
:101850001F0EE66EE66A58EC29F0E552E552020EDC
:10186000F3CFDBFF030EF4CFDBFFD950020FE96E9D
:10187000000EDA20EA6EEE50ED1048E0D950FA0F73
:10188000E96EFF0EDA20EA6EEE50ED100FE1FC0E6D
:10189000DBCFE6FFFD0EDBCFE6FF58EC29F0E5528B
:1018A000E552F3CF10F0F4CF11F006D0FA0EDBCFF3
:1018B00010F0FB0EDBCF11F0020EDBCFE9FF030EC1
:1018C000DBCFEAFF170EE926000EEA2210C0EEFF7A
:1018D00011C0EDFF020EDBCFE9FF030EDBCFEAFF05
:1018E000170EE926000EEA22EE50ED100FE1020E6F
:1018F000DBCFE6FF030EDBCFE6FFC6EC29F0E552B7
:10190000E552020EDB6A030EDB6A00D0020EDBCF6B
:1019100010F0030EDBCF11F010C0F3FF11C0F4FF85
:1019200000D0040EE15C02E2E16AE552E16EE552AC
:10193000E5CFDAFFE7CFD9FF1200D9CFE6FFDACF44
:10194000E6FFE1CFD9FFE2CFDAFFFC0EDBCFE9FF04
:10195000FD0EDBCFEAFF170EE926000EEA22EECFDE
:10196000E6FFEFCFE6FFC6EC29F0E552E552FC0EAC
:10197000DBCFE6FFFD0EDBCFE6FFC6EC29F0E5523C
:10198000E552E552E5CFDAFFE7CFD9FF1200D9CF14
:10199000E6FFDACFE6FFE1CFD9FFE2CFDAFFE6528A
:1019A000E65296C8E9FF97C8EAFFEF50000904E144
:1019B0000801EE69EF6924D096C8E9FF97C8EAFFED
:1019C000030EE926000EEA22020EE926000EEA22A4
:1019D000EE50EFCFEAFFE96E060EE926000EEA228E
:1019E000EECFDEFFEDCFDDFFDECFE9FFDDCFEAFF9B
:1019F000020EE926000EEA22EECFEEF8EDCFEFF868
:101A0000E552E552E552E5CFDAFFE7CFD9FF120004
:101A1000D9CFE6FFDACFE6FFE1CFD9FFE2CFDAFF99
:101A2000E652E652E0C8E9FFE1C8EAFF0C0EE926FB
:101A3000000EEA22EECFDEFFEDCFDDFFE0C8E9FFCA
:101A4000E1C8EAFF160EEB50106E116A040ED88042
:101A50001056000E1156E0C8E9FFE1C8EAFF0C0E6F
:101A6000E926000EEA2210C0EEFF11C0EDFFDECF26
:101A700010F0DDCF11F010C0F3FF11C0F4FF00D063
:101A8000E552E552E552E5CFDAFFE7CFD9FF120084
:101A9000D9CFE6FFDACFE6FFE1CFD9FFE2CFDAFF19
:101AA000E652E652300EE66E07D9E552F3CF10F05B
:101AB000F4CF11F01050111001E1FFD778DAF3CF15
:101AC000DEFFF4CFDDFFD9CFE9FFDACFEAFFEE503A
:101AD000ED1007E090EC11F0F3CFDEFFF4CFDDFF67
:101AE000F2D7E552E552E552E5CFDAFFE7CFD9FF6D
:101AF0001200D9CFE6FFDACFE6FFE1CFD9FFE2CF80
:101B0000DAFFE652E652DE6ADD6A300EE66ED4D8BF
:101B1000E552F3CF10F0F4CF11F01050111003E1A3
:101B2000F36AF46A30D043DAF3CF10F0F4CF11F057
:101B30001050111003E1F36AF46A25D00AEC18F092
:101B4000F3CF10F0F4CF11F01050111013E0440E49
:101B5000E66E06EC13F0E552F3CF10F0F4CF11F07F
:101B60001050111003E1F36AF46A0DD0010EF36E08
:101B7000F46A09D0DECF10F0DDCF11F010C0F3FF12
:101B800011C0F4FF00D0E552E552E552E5CFDAFF8F
:101B9000E7CFD9FF1200D9CFE6FFDACFE6FFE1CFDA
:101BA000D9FFE2CFDAFFE652E652DE6ADD6A0AECDE
:101BB00018F0F3CF10F0F4CF11F01050111006E030
:101BC000CAEC13F0F3CFDEFFF4CFDDFFDECF10F071
:101BD000DDCF11F010C0F3FF11C0F4FF00D0E552CB
:101BE000E552E552E5CFDAFFE7CFD9FF1200D9CFB2
:101BF000E6FFDACFE6FFE1CFD9FFE2CFDAFF060E4C
:101C0000E12402E3E168E652E16E0801C739F00B16
:101C1000DF6EF00E0801C615E8380F0BDF120F0E4D
:101C20000801C615E76E010EE7CFDBFF010EDB50A2
:101C3000106E116A710E1102F3CF11F0020E100234
:101C4000F3501126710E1002F3CF10F0F45011264C
:101C5000E80E0D6E030E0E6E10C008F011C009F0F4
:101C6000D3EC2BF008C010F009C011F0FC0EDBCF54
:101C7000E9FFFD0EDBCFEAFF10C0EEFF11C0EDFF64
:101C8000DF50E66EFC0EDBCFE9FFFD0EDBCFEAFF97
:101C9000020EE926000EEA22E552E750EE6EED6AEA
:101CA000060EE15C02E2E16AE552E16EE552E5CF43
:101CB000DAFFE7CFD9FF1200D9CFE6FFDACFE6FF90
:101CC000E1CFD9FFE2CFDAFFFD0EDBCFBBF846D87C
:101CD000F3CF10F0F4CF11F0010E101801E1115004
:101CE00003E0F36AF46A34D00801BE6BBF6B0801ED
:101CF000C06BC16B0801C26BC36B0801C46BC56BC1
:101D000008010801BE510801C011146E0801080144
:101D1000BF510801C111156E14500801C211126E95
:101D200015500801C311136E12500801C411E66E5C
:101D30009AD8E552F3CF10F0F4CF11F010501110F3
:101D400003E1F36AF46A04D0010EF36EF46A00D082
:101D5000E552E5CFDAFFE7CFD9FF1200D9CFE6FF92
:101D6000DACFE6FFE1CFD9FFE2CFDAFFE6525BEC54
:101D700027F0F3CF10F0F4CF11F01050111003E161
:101D8000F36AF46A69D0010EE66EE66ABBC8E6FF44
:101D90007AEC27F0E552E552E552F3CF10F0F4CF9C
:101DA00011F01050111003E1F36AF46A55D0010EDE
:101DB000E66EE66AF00EE66E7AEC27F0E552E55242
:101DC000E552F3CF10F0F4CF11F01050111003E1F1
:101DD000F36AF46A41D06AEC27F0F3CF10F0F4CF45
:101DE00011F01050111003E1F36AF46A35D0010EBE
:101DF000E66EE66A010E0801BB11E66E7AEC27F08A
:101E0000E552E552E552F3CF10F0F4CF11F0105047
:101E1000111003E1F36AF46A1FD0000EE66EE66A61
:101E2000E3EC27F0E552E552DF6E4CEC27F0F3CF00
:101E300010F0F4CF11F01050111003E1F36AF46ABE
:101E40000BD0F70EDF14100804E1010EF36EF46AF4
:101E500003D0F36AF46A00D0E552E552E5CFDAFF29
:101E6000E7CFD9FF1200D9CFE6FFDACFE6FFE1CF07
:101E7000D9FFE2CFDAFFE6525BEC27F0F3CF10F0A8
:101E8000F4CF11F01050111003E1F36AF46A88D016
:101E9000010EE66EE66ABBC8E6FF7AEC27F0E55273
:101EA000E552E552F3CF10F0F4CF11F010501110BD
:101EB00003E1F36AF46A74D0010EE66EE66AD20EAC
:101EC000E66E7AEC27F0E552E552E552F3CF10F0DA
:101ED000F4CF11F01050111003E1F36AF46A60D0EE
:101EE000010EE66EE66AFD0EDBCFE6FFFD0EDB1CA3
:101EF000100DF350E552E710E66E7AEC27F0E5524C
:101F0000E552E552F3CF10F0F4CF11F0105011105C
:101F100003E1F36AF46A44D06AEC27F0F3CF10F0DF
:101F2000F4CF11F01050111003E1F36AF46A38D0C5
:101F3000010EE66EE66A010E0801BB11E66E7AEC50
:101F400027F0E552E552E552F3CF10F0F4CF11F04F
:101F50001050111003E1F36AF46A22D0000EE66E0D
:101F6000E66AE3EC27F0E552E552DF6E4CEC27F031
:101F7000F3CF10F0F4CF11F01050111003E1F36A19
:101F8000F46A0ED0DF50F36EFD0EDB50F35C04E01C
:101F9000E5DEF36AF46A04D0010EF36EF46A00D051
:101FA000E552E552E5CFDAFFE7CFD9FF120008018D
:101FB000B46BB56B0801B86BB96B0801B66BB76B46
:101FC00002D800D01200D9CFE6FFDACFE6FFE1CF8A
:101FD000D9FFE2CFDAFF0F0EE12402E3E168E65217
:101FE000E16E010EDE6EDD6A020EDB6A030EDB6A55
:101FF000040EDB6A050EDB6A010EF36E0C0EF3CFE6
:10200000DBFF060EDB6A070EDB6A0801BA6B08010C
:10201000B851B91101E054D186D9F3CF10F0F4CF03
:1020200011F0105011100CE10801B46BB56B0801F0
:10203000B86BB96B0801B66BB76BF36AF46A64D11D
:10204000F00EE66EE3DAE552DECF10F0DDCF11F0F0
:1020500008011150B519E8AE02D0B53504D0B4511D
:10206000105CB55111581BE20C0EDBCFE6FF040EDD
:10207000DBCFE9FF050EDBCFEAFFAC0EE926080E49
:10208000EA22EF50E552E714000806E2010EF36E73
:102090000D0EF3CFDBFF02D00D0EDB6A13D0DECFC7
:1020A00010F0DDCF11F00801B451101802E1B55164
:1020B000111806E1010EF36E0D0EF3CFDBFF02D017
:1020C0000D0EDB6A0D0EDBCFE6FFE66A1FEC16F0A5
:1020D000E552E552E76E0E0EE7CFDBFF0E0EDB504A
:1020E000200B200802E0000E01D0010E106E116AD4
:1020F00010BE1168080E10C0DBFF090E11C0DBFF17
:102100000E0EDB50400B400802E0000E01D0010E25
:10211000106E116A10BE11680A0E10C0DBFF0B0EA4
:1021200011C0DBFF0E0EDB50800B800802E1010EB8
:1021300001D0000EE76E0D0EE7CFDBFFD950080F80
:10214000E96E000EDA20EA6EEE50ED100BE0D95089
:102150000A0FE96E000EDA20EA6EEE50ED1002E092
:102160008BD07BD0D950080FE96E000EDA20EA6ED2
:10217000EE50ED102AE1D9500A0FE96E000EDA2078
:10218000EA6EEE50ED1021E10D0EDB501EE1D9CFCD
:10219000E9FFDACFEAFF020EEECFDBFF030EEDCF51
:1021A000DBFF020EDBCF10F0030EDBCF11F0D89077
:1021B000115004E6090E105C000E115806E2020EE2
:1021C000DBCFB6F8030EDBCFB7F80D0EDB040EE164
:1021D000040EDBCFE9FF050EDBCFEAFFAC0EE926EC
:1021E000080EEA220C0EDB50EF120FD00C0EDB1C97
:1021F000106E040EDBCFE9FF050EDBCFEAFFAC0E5D
:10220000E926080EEA221050EF16DF2A010E01E33C
:10221000DB2A0C0EDBCFF3FFF39EF3460C0EF3CF5D
:10222000DBFF0C0EDB5019E1040EDBCFE9FF050EDE
:10223000DBCFEAFFAC0EE926080EEA22EF50E66E8D
:10224000B5EC16F0E552040EDB2A050E01E3DB2A9D
:10225000010EF36E0C0EF3CFDBFF040EDBCF10F09C
:10226000050EDBCF11F0D890115004E6080E105C7B
:10227000000E115801E2E8D6DECF10F0DDCF11F0EC
:10228000D890115004E6410E105C000E115818E36E
:102290000801BA5115E1020EDBCFB4F8030EDBCF13
:1022A000B5F80801B451B51104E1010E0801B86F89
:1022B000B96B010EF36E060EF3CFDBFF070EDB6A80
:1022C000D950060FE96E000EDA20EA6EEE50ED10DE
:1022D00003E00801AC510DE10801B46BB56B0801D6
:1022E000B86BB96B0801B66BB76B060EDB6A070EED
:1022F000DB6A060EDBCF10F0070EDBCF11F010C04B
:10230000F3FF11C0F4FF00D00F0EE15C02E2E16ABE
:10231000E552E16EE552E5CFDAFFE7CFD9FF1200D3
:1023200052DE00D01200D9CFE6FFDACFE6FFE1CFD0
:10233000D9FFE2CFDAFFE652E652E652010EDB6A3F
:10234000020EDB6A5BEC27F0F3CF10F0F4CF11F054
:102350001050111003E1F36AF46AA1D0010EE66E89
:10236000E66ABBC8E6FF7AEC27F0E552E552E55293
:10237000F3CF10F0F4CF11F01050111003E1F36A15
:10238000F46A8DD0010EE66EE66AB40EE66E7AEC63
:1023900027F0E552E552E552F3CF10F0F4CF11F0FB
:1023A0001050111003E1F36AF46A79D06AEC27F057
:1023B000F3CF10F0F4CF11F01050111003E1F36AD5
:1023C000F46A6DD0010EE66EE66A010E0801BB11DB
:1023D000E66E7AEC27F0E552E552E552F3CF10F0C5
:1023E000F4CF11F01050111003E1F36AF46A57D0E2
:1023F000010EE66EE66AE3EC27F0E552E552DF6E89
:10240000DFA01DD0010EDF14E66EE66AE3EC27F0D4
:10241000E552E552DF6E010EDF1411E0010EDBCF55
:1024200010F0DB2A020EDBCF11F001E3DB2AD8909B
:10243000115004E6C80E105C000E1158E3E3000EC4
:10244000E66EE66AE3EC27F0E552E552DF6E4CEC0F
:1024500027F0010EDBCF10F0020EDBCF11F0D89089
:10246000115004E6C80E105C000E115804E376DC2F
:10247000F36AF46A14D0DFA405D0010E0801BC6F22
:10248000BD6B03D00801BC6BBD6BDFA205D0010E94
:10249000F36EF46A04D003D0F36AF46A00D0E55214
:1024A000E552E552E552E5CFDAFFE7CFD9FF12005A
:1024B000D9CFE6FFDACFE6FFE1CFD9FFE2CFDAFFEF
:1024C000FD0EDBCFE6FF0DD8E552E552E5CFDAFF92
:1024D000E7CFD9FF1200010EE66E03D8E55200D017
:1024E0001200D9CFE6FFDACFE6FFE1CFD9FFE2CF86
:1024F000DAFFE652E652E652010EDB6A020EDB6AB2
:102500005BEC27F0010EE66EE66ABBC8E6FF7AECEC
:1025100027F0E552E552E552010EE66EE66A870EB7
:10252000E66E7AEC27F0E552E552E552010EE66ED2
:10253000E66AFD0EDB5002E0800E01D0000EE66E72
:102540007AEC27F0E552E552E5526AEC27F0010EED
:10255000E66EE66A010E0801BB11E66E7AEC27F022
:10256000E552E552E552010EE66EE66AE3EC27F02D
:10257000E552E552DF6EDFA01DD0010EDF14E66EDE
:10258000E66AE3EC27F0E552E552DF6E010EDF1458
:1025900011E0010EDBCF10F0DB2A020EDBCF11F0D1
:1025A00001E3DB2AD890115004E6C80E105C000E3F
:1025B0001158E3E3000EE66EE66AE3EC27F0E5521D
:1025C000E552DF6E4CEC27F0010EDBCF10F0020E6F
:1025D000DBCF11F0D890115004E6C80E105C000E4D
:1025E000115804E3AEEC0EF0000E07D0DFAA03D0C2
:1025F000010E03D002D0000E00D0E552E552E552A4
:10260000E552E5CFDAFFE7CFD9FF1200D9CFE6FFD9
:10261000DACFE6FFE1CFD9FFE2CFDAFFE652E652AA
:10262000E652010EDB6A020EDB6A5BEC27F0F3CFA9
:1026300010F0F4CF11F01050111003E1F36AF46AB6
:10264000A0D0010EE66EE66ABBC8E6FF7AEC27F082
:10265000E552E552E552F3CF10F0F4CF11F01050EF
:10266000111003E1F36AF46A8CD0010EE66EE66A9B
:10267000A50EE66E7AEC27F0E552E552E552F3CF6F
:1026800010F0F4CF11F01050111003E1F36AF46A66
:1026900078D0010EE66EE66AFD0EDBCFE6FF7AEC3F
:1026A00027F0E552E552E552F3CF10F0F4CF11F0E8
:1026B0001050111003E1F36AF46A63D06AEC27F05A
:1026C000F3CF10F0F4CF11F01050111003E1F36AC2
:1026D000F46A57D0010EE66EE66A010E0801BB11DE
:1026E000E66E7AEC27F0E552E552E552F3CF10F0B2
:1026F000F4CF11F01050111003E1F36AF46A41D0E5
:10270000010EE66EE66AE3EC27F0E552E552DF6E75
:10271000DFA01DD0010EDF14E66EE66AE3EC27F0C1
:10272000E552E552DF6E010EDF1411E0010EDBCF42
:1027300010F0DB2A020EDBCF11F001E3DB2AD89088
:10274000115004E6C80E105C000E1158E3E3000EB1
:10275000E66EE66AE3EC27F0E552E552DF6E4CECFC
:1027600027F0010EDBCF10F0020EDBCF11F0D89076
:10277000115004E6C80E105C000E115802E3AEECD6
:102780000EF0E552E552E552E552E5CFDAFFE7CF2C
:10279000D9FF1200D9CFE6FFDACFE6FFE1CFD9FFAC
:1027A000E2CFDAFF230EE12402E3E168E652E16EB4
:1027B0001E0EDB6A0801C66B0801C76B000EE66ED1
:1027C000E66A57DBE552E552F3CF10F0F4CF11F093
:1027D0001050111003E0F36AF46AA5D0210EDB6AF1
:1027E000220EDB6AD9CF10F0DACF11F0210EDBCF49
:1027F00012F0DB2A220EDBCF13F001E3DB2A1050AC
:102800001224E96E11501320EA6EBE0EEF6E1F0EF9
:10281000DB6A200EDB6A1F0EDBCF10F0200EDBCF51
:1028200011F0D890115004E6090E105C000E1158FA
:102830001AE2D9CF10F0DACF11F0210EDBCF12F06F
:10284000DB2A220EDBCF13F001E3DB2A1050122427
:10285000E96E11501320EA6EEF681F0EDB2A200E7E
:1028600001E3DB2AD8D7210EDBCFE6FF220EDBCF38
:10287000E6FFD9CFE6FFDACFE6FF47D9E552E552CA
:10288000E552E552210EDBCF10F0220EDBCF11F026
:10289000090E105E000E115A1F0E10C0DBFF200E35
:1028A00011C0DBFF1F0EDBCF10F0200EDBCF11F0CD
:1028B000210EDBCF12F0220EDBCF13F011501318D4
:1028C000E8AE02D0133404D01250105C13501158EB
:1028D0001AE2D9CF10F0DACF11F01F0EDB5010241E
:1028E000E96E200EDB501120EA6EEF50E66E3DDA05
:1028F000E552E76E1E0EE7CFDBFF1F0EDB2A200E30
:1029000001E3DB2ACFD71E0EDB500AE1010EDBCF3D
:10291000C6F8020EDBCFC7F8010EF36EF46A03D0DF
:10292000F36AF46A00D0230EE15C02E2E16AE55248
:10293000E16EE552E5CFDAFFE7CFD9FF1200D9CF3C
:10294000E6FFDACFE6FFE1CFD9FFE2CFDAFFE652CA
:10295000E652E652E652020EDB6A030EDB6A5BECDD
:1029600027F0010EE66EE66ABBC8E6FF7AEC27F0B8
:10297000E552E552E552010EE66EE66A960EE66E07
:102980007AEC27F0E552E552E5526AEC27F0010EA9
:10299000E66EE66A010E0801BB11E66E7AEC27F0DE
:1029A000E552E552E552010EE66EE66AE3EC27F0E9
:1029B000E552E552E76E010EE7CFDBFF010EDBA02B
:1029C00022D0010EDB50010BE66EE66AE3EC27F045
:1029D000E552E552E76E010EE7CFDBFF010EDB505B
:1029E000010B11E0020EDBCF10F0DB2A030EDBCF70
:1029F00011F001E3DB2AD890115004E6C80E105CF8
:102A0000000E1158DEE3000EE66EE66AE3EC27F0F6
:102A1000E552E552E76E010EE7CFDBFF020EDBCF9A
:102A200010F0030EDBCF11F0D890115004E6C80E61
:102A3000105C000E115804E3AEEC0EF0000E3AD01C
:102A40006AEC27F0010EE66EE66ABBC8E6FF7AEC98
:102A500027F0E552E552E552010EE66EE66AE10E18
:102A6000E66E7AEC27F0E552E552E552010EE66E8D
:102A7000E66AE10EE66E7AEC27F0E552E552E552A1
:102A80006AEC27F0010EE66EE66A010E0801BB1142
:102A9000E66E7AEC27F0E552E552E552000EE66E5E
:102AA000E66AE3EC27F0E552E552DF6E4CEC27F0E6
:102AB000DF5000D0106E040EE15C02E2E16AE552E4
:102AC000E16E1050E552E5CFDAFFE7CFD9FF1200F3
:102AD000D9CFE6FFDACFE6FFE1CFD9FFE2CFDAFFC9
:102AE000FD0EDB50FF0803E12ADF09D008D0FD0E00
:102AF000DBCFE6FF8BDDE552FD0EDB5000D0E5526B
:102B0000E5CFDAFFE7CFD9FF1200D9CFE6FFDACF62
:102B1000E6FFE1CFD9FFE2CFDAFFE652E652DE6A06
:102B2000DD6ADECF10F0DDCF11F0FA0EDBCF12F050
:102B3000FB0EDBCF13F011501318E8AE02D01334A4
:102B400004D01250105C1350115825E2FC0EDBCF5C
:102B500012F0FD0EDBCF13F0DE501224E96EDD50D3
:102B60001320EA6EEF50E66EB3DFE552E66EFC0E20
:102B7000DBCF10F0FD0EDBCF11F0DE501024E96E3C
:102B8000DD501120EA6EE552E750EF6EDF2A010EAC
:102B900001E3DB2AC6D7E552E552E552E5CFDAFF7D
:102BA000E7CFD9FF1200D9CFE6FFDACFE6FFE1CFBA
:102BB000D9FFE2CFDAFFE652E652FD0EDBCFACF8EA
:102BC000010EDE6EDD6ADECF10F0DDCF11F0D890A1
:102BD000115004E6080E105C000E11580EE2DECF14
:102BE000E9FFDDCFEAFFAC0EE926080EEA22EF6A24
:102BF000DF2A010E01E3DB2AE6D7400E0801B46F9D
:102C0000B56B0801B66BB76B0801B86BB96BE552D1
:102C1000E552E552E5CFDAFFE7CFD9FF1200B6C89B
:102C2000B4F8B7C8B5F80801B66BB76B0801B45172
:102C3000B51104E1010E0801B86FB96B1200D9CFCC
:102C4000E6FFDACFE6FFE1CFD9FFE2CFDAFFE652C7
:102C5000E652E652010EDB6A020EDB6A5BEC27F0FD
:102C6000010EE66EE66ABBC8E6FF7AEC27F0E55295
:102C7000E552E552010EE66EE66A780EE66E7AECF3
:102C800027F0E552E552E552010EE66EE66AD950AC
:102C9000FC0FE96EFF0EDA20EA6EEE50ED1002E056
:102CA000800E01D0000EE66E7AEC27F0E552E55278
:102CB000E5526AEC27F0010EE66EE66A010E0801A5
:102CC000BB11E66E7AEC27F0E552E552E552010EB3
:102CD000E66EE66AE3EC27F0E552E552DF6EDFA030
:102CE0001DD0010EDF14E66EE66AE3EC27F0E55234
:102CF000E552DF6E010EDF1411E0010EDBCF10F0A4
:102D0000DB2A020EDBCF11F001E3DB2AD890115051
:102D100004E6C80E105C000E1158E3E3000EE66EE8
:102D2000E66AE3EC27F0E552E552DF6E4CEC27F063
:102D3000010EDBCF10F0020EDBCF11F0D890115056
:102D400004E6C80E105C000E115804E3AEEC0EF061
:102D5000000E02D0DF5000D0E552E552E552E552B8
:102D6000E5CFDAFFE7CFD9FF1200D9CFE6FFDACF00
:102D7000E6FFE1CFD9FFE2CFDAFFE652E652FD0EE1
:102D8000DB500801BA190801BA6FDE6ADD6ADECFCE
:102D900010F0DDCF11F0D890115004E6080E105C51
:102DA000000E115814E20801BAA107D00801BA4177
:102DB0007F0B8C0A0801BA6F05D00801BA417F0B5E
:102DC0000801BA6FDF2A010E01E3DB2AE0D7080110
:102DD000BA5100D0E552E552E552E5CFDAFFE7CF30
:102DE000D9FF1200D9CFE6FFDACFE6FFE1CFD9FF56
:102DF000E2CFDAFFD950FC0FE96EFF0EDA20EA6E5F
:102E0000010EEE1801E1ED5005E1080E0801BE6F5C
:102E1000BF6B03D00801BE6BBF6B08010801BE5138
:102E20000801C011126E08010801BF510801C1114B
:102E3000136E12500801C211106E13500801C31115
:102E4000116E10500801C411E66E33EC0FF0E5521C
:102E5000FC0EDBCF10F0FD0EDBCF11F010C0F3FF46
:102E600011C0F4FF00D0E552E5CFDAFFE7CFD9FF7C
:102E70001200D9CFE6FFDACFE6FFE1CFD9FFE2CFEC
:102E8000DAFFD950FC0FE96EFF0EDA20EA6EEE5041
:102E9000ED1004E0020EF36EF46A21D00801C06B5D
:102EA000C16B08010801BE510801C011126E080172
:102EB0000801BF510801C111136E12500801C2115F
:102EC000106E13500801C311116E10500801C41187
:102ED000E66E33EC0FF0E552F36AF46A00D0E55287
:102EE000E5CFDAFFE7CFD9FF1200D9CFE6FFDACF7F
:102EF000E6FFE1CFD9FFE2CFDAFF040E0801C06F91
:102F0000C16B08010801BE510801C011146E08010F
:102F10000801BF510801C111156E14500801C211FA
:102F2000126E15500801C311136E12500801C4111E
:102F3000E66E33EC0FF0E552F3CF10F0F4CF11F062
:102F40001050111003E1F36AF46A0AD0FC0EDBCFD3
:102F5000E6FF06EC13F0E552010EF36EF46A00D0C2
:102F6000E552E5CFDAFFE7CFD9FF1200D9CFE6FF70
:102F7000DACFE6FFE1CFD9FFE2CFDAFFE652040E67
:102F80000801C06FC16B08010801BE510801C011E2
:102F9000146E08010801BF510801C111156E1450CB
:102FA0000801C211126E15500801C311136E1250A0
:102FB0000801C411E66E33EC0FF0E552F3CF10F0C8
:102FC000F4CF11F01050111003E1F36AF46A1BD032
:102FD0006BEC12F0DF6EDF50106E116AFC0EDB50EE
:102FE000101803E1FD0EDB50111809E0000EE66E2B
:102FF000E66A3FDFE552E552F36AF46A04D0010E57
:10300000F36EF46A00D0E552E552E5CFDAFFE7CF80
:10301000D9FF1200D9CFE6FFDACFE6FFE1CFD9FF23
:10302000E2CFDAFF0A0EE12402E3E168E652E16E44
:1030300093EC11F0F3CF10F0F4CF11F01050111009
:103040006DE0550EDF6E010EF36E090EF3CFDBFF60
:10305000090EF36E090EDBCFF4FFF350F45C1BE2B4
:10306000090EDB04EA6AAC0FE96E080EEA22EF50A3
:10307000E66ED9CF10F0DACF11F0090EDB500F0158
:103080001024E96E000E1120EA6EE552E750EF6E53
:10309000090EDB2ADDD7090EE66EE66AD9CFE6FF18
:1030A000DACFE6FF32DDE552E552E552E552010E98
:1030B000F36E090EF3CFDBFF090EF36E090EDBCFC3
:1030C000F4FFF350F45C1EE2D9CF11F0DACF12F026
:1030D000090EDB500F011124E96E000E1220EA6E7A
:1030E000EFCF10F0090EDB04EA6AAC0FE96E080EB0
:1030F000EA22EF50105C03E0F36AF46A15D0090E7F
:10310000DB2ADAD7550EDF5C04E0F36AF46A0CD0F0
:1031100004D0010EF36EF46A07D003D0F36AF46AA8
:1031200003D0F36AF46A00D00A0EE15C02E2E16ABD
:10313000E552E16EE552E5CFDAFFE7CFD9FF1200A5
:10314000D9CFE6FFDACFE6FFE1CFD9FFE2CFDAFF52
:10315000E652E652E652E652E652FC0EDBCFE9FFBB
:10316000FD0EDBCFEAFF110EEF6EFC0EDB2AFD0E2B
:1031700001E3DB2AFC0EDBCFE9FFFD0EDBCFEAFF2C
:10318000220EEF6EFC0EDB2AFD0E01E3DB2AFC0EA5
:10319000DBCFE9FFFD0EDBCFEAFF330EEF6EFC0E57
:1031A000DB2AFD0E01E3DB2AF80EDBCF10F0F90E6F
:1031B000DBCF11F0000E10C0DBFF010E11C0DBFFF2
:1031C000020EDB6A030EDB6AD9CFE9FFDACFEAFF32
:1031D000EECF10F0EECF11F0EECF12F0EFCF13F0F4
:1031E0001050E66EFC0EDBCFE9FFFD0EDBCFEAFFF1
:1031F000E552E750EF6EFC0EDB2AFD0E01E3DB2A01
:10320000D9CFE9FFDACFEAFF080EE76ED890030EB8
:10321000EB32020EEB32010EEB32EF32E706F6E153
:10322000D9CFE9FFDACFEAFFEECF10F0EECF11F001
:10323000EECF12F0EFCF13F01050E66EFC0EDBCFA6
:10324000E9FFFD0EDBCFEAFFE552E750EF6EFC0E23
:10325000DB2AFD0E01E3DB2AFC0EDBCFE9FFFD0ECE
:10326000DBCFEAFF440EEF6EFC0EDB2AFD0E01E31E
:10327000DB2AFC0EDBCFE9FFFD0EDBCFEAFF660E9B
:10328000EF6EFC0EDB2AFD0E01E3DB2AFC0EDBCF2A
:10329000E9FFFD0EDBCFEAFFCC0EEF6EFC0EDB2A62
:1032A000FD0E01E3DB2AFC0EDBCFE9FFFD0EDBCFD9
:1032B000EAFFC00EEF6EFC0EDB2AFD0E01E3DB2AF7
:1032C000FC0EDBCFE9FFFD0EDBCFEAFF110EEF6E48
:1032D000FC0EDB2AFD0E01E3DB2AFC0EDBCFE9FF4F
:1032E000FD0EDBCFEAFF220EEF6EFC0EDB2AFD0E99
:1032F00001E3DB2AFC0EDBCFE9FFFD0EDBCFEAFFAB
:10330000330EEF6EFC0EDB2AFD0E01E3DB2AFC0E12
:10331000DBCFE9FFFD0EDBCFEAFF440EEF6EFC0EC4
:10332000DB2AFD0E01E3DB2AFC0EDBCFE9FFFD0EFD
:10333000DBCFEAFF550EEF6EFC0EDB2AFD0E01E33C
:10334000DB2AFC0EDBCFE9FFFD0EDBCFEAFF660ECA
:10335000EF6EFC0EDB2AFD0E01E3DB2AFC0EDBCF59
:10336000E9FFFD0EDBCFEAFFEF6AFC0EDB2AFD0E64
:1033700001E3DB2AFC0EDBCFE9FFFD0EDBCFEAFF2A
:10338000880EEF6EFC0EDB2AFD0E01E3DB2AFC0E3D
:10339000DBCFE9FFFD0EDBCFEAFF990EEF6EFC0EEF
:1033A000DB2AFD0E01E3DB2AFC0EDBCFE9FFFD0E7D
:1033B000DBCFEAFFAA0EEF6EFC0EDB2AFD0E01E367
:1033C000DB2AFC0EDBCFE9FFFD0EDBCFEAFFBB0EF5
:1033D000EF6EFC0EDB2AFD0E01E3DB2AFC0EDBCFD9
:1033E000E9FFFD0EDBCFEAFFEF6AFC0EDB2AFD0EE4
:1033F00001E3DB2AFC0EDBCFE9FFFD0EDBCFEAFFAA
:10340000EF6AFC0EDB2AFD0E01E3DB2A040EDB6A09
:10341000040EDB501D0815E3FC0EDBCFE9FFFD0EAB
:10342000DBCFEAFF040EDBCFEFFFFC0EDBCFE9FFC3
:10343000DB2AFD0EDBCFEAFF01E3DB2A040EDB2AE9
:10344000E7D7FC0EDBCFE9FFFD0EDBCFEAFF1D0E59
:10345000EF6EFC0EDB2AFD0E01E3DB2AFC0EDBCF58
:10346000E9FFFD0EDBCFEAFFEF6AFC0EDB2AFD0E63
:1034700001E3DB2AFA0EDBCF10F0FB0EDBCF11F0FD
:10348000000E10C0DBFF010E11C0DBFF020EDB6A75
:10349000030EDB6AD9CFE9FFDACFEAFFEECF10F0F7
:1034A000EECF11F0EECF12F0EFCF13F01050E66E2A
:1034B000FC0EDBCFE9FFFD0EDBCFEAFFE552E75064
:1034C000EF6EFC0EDB2AFD0E01E3DB2AD9CFE9FF0C
:1034D000DACFEAFF080EE76ED890030EEB32020E49
:1034E000EB32010EEB32EF32E706F6E1D9CFE9FF1E
:1034F000DACFEAFFEECF10F0EECF11F0EECF12F000
:10350000EFCF13F01050E66EFC0EDBCFE9FFFD0E9F
:10351000DBCFEAFFE552E750EF6EFC0EDB2AFD0E33
:1035200001E3DB2AD9CFE9FFDACFEAFF080EE76E25
:10353000D890030EEB32020EEB32010EEB32EF327B
:10354000E706F6E1D9CFE9FFDACFEAFFEECF10F0D8
:10355000EECF11F0EECF12F0EFCF13F01050E66E79
:10356000FC0EDBCFE9FFFD0EDBCFEAFFE552E750B3
:10357000EF6EFC0EDB2AFD0E01E3DB2AFC0EDBCF37
:10358000E9FFFD0EDBCFEAFF010EEF6EFC0EDB2A3A
:10359000FD0E01E3DB2AFC0EDBCF10F0FD0EDBCFCE
:1035A00011F010C0F3FF11C0F4FF00D0050EE15C74
:1035B00002E2E16AE552E16EE552E5CFDAFFE7CFDC
:1035C000D9FF12008EDAE0C8E9FFE1C8EAFFEECFCA
:1035D000E1FFEECFE2FFE5CFE9FFE5CFE9FFFC6ACF
:1035E000E950FC5C08E20500E550FF6EE550FE6E18
:1035F000E550FD6EF5D7E5CFEAFFE5CFE9FFE5CF72
:10360000EDFFE5CFEDFFE5CFEDFFE5CFEDFFE5CF3A
:10361000EDFFE5CFEDFFE5CFEDFFE5CFEDFFE5CF2A
:10362000EDFFE5CFEDFFE5CFEDFFE5CFEDFFE5CF1A
:10363000EDFFE5CFEDFFE5CFEDFFE5CFEDFFE5CF0A
:10364000EDFFE5CFEDFFE5CFEDFFE5CFEDFFE5CFFA
:10365000EDFFE5CFEDFFE5CFEDFFE5CFEDFFE5CFEA
:10366000EDFFE5CFEDFFE5CFEDFFE5CFEDFFE5CFDA
:10367000EDFFE5CFEFFFE5CFFAFFE5CFFBFFE5CFAD
:10368000F3FFE5CFF4FFE5CFF6FFE5CFF7FFE5CF9A
:10369000F8FFE5CFF5FFE5CFEAFFE5CFE9FFE5CF9E
:1036A000DAFFE5CFD9FFE5CFE0FFE5CFE8FFE8AEF1
:1036B00006D0E5CFD8FFE5CFE8FF100005D0E5CF75
:1036C000D8FFE5CFE8FF1200010E00D01200120073
:1036D000E8CFE4FFD8CFE4FFF2CFE8FF0009E8CF5E
:1036E000E4FFF29EE0CFE4FFD9CFE4FFDACFE4FFBE
:1036F000E9CFE4FFEACFE4FFF5CFE4FFF8CFE4FF42
:10370000F7CFE4FFF6CFE4FFF4CFE4FFF3CFE4FF1D
:10371000FBCFE4FFFACFE4FFE96AEA6AEECFE4FF09
:10372000EECFE4FFEECFE4FFEECFE4FFEECFE4FF19
:10373000EECFE4FFEECFE4FFEECFE4FFEECFE4FF09
:10374000EECFE4FFEECFE4FFEECFE4FFEECFE4FFF9
:10375000EECFE4FFEECFE4FFEECFE4FFEECFE4FFE9
:10376000EECFE4FFEECFE4FFEECFE4FFEECFE4FFD9
:10377000EECFE4FFEECFE4FFEECFE4FFEECFE4FFC9
:10378000EECFE4FFEECFE4FFEECFE4FFEECFE4FFB9
:10379000EFCFE4FFE9CFE4FFEACFE4FFFCCFE9FF9E
:1037A000FC50000808E2FDCFE4FFFECFE4FFFFCFAE
:1037B000E4FF0600F5D7E9CFE4FFE452E0C8E9FFF3
:1037C000E1C8EAFFE1CFEEFFE2CFEEFF50EC06F0FA
:1037D000E0C8E9FFE1C8EAFFEECFE1FFEECFE2FF8C
:1037E000E5CFE9FFE5CFE9FFFC6AE950FC5C08E2C0
:1037F0000500E550FF6EE550FE6EE550FD6EF5D715
:10380000E5CFEAFFE5CFE9FFE5CFEDFFE5CFEDFF3F
:10381000E5CFEDFFE5CFEDFFE5CFEDFFE5CFEDFF28
:10382000E5CFEDFFE5CFEDFFE5CFEDFFE5CFEDFF18
:10383000E5CFEDFFE5CFEDFFE5CFEDFFE5CFEDFF08
:10384000E5CFEDFFE5CFEDFFE5CFEDFFE5CFEDFFF8
:10385000E5CFEDFFE5CFEDFFE5CFEDFFE5CFEDFFE8
:10386000E5CFEDFFE5CFEDFFE5CFEDFFE5CFEDFFD8
:10387000E5CFEDFFE5CFEDFFE5CFEDFFE5CFEFFFC6
:10388000E5CFFAFFE5CFFBFFE5CFF3FFE5CFF4FF90
:10389000E5CFF6FFE5CFF7FFE5CFF8FFE5CFF5FF82
:1038A000E5CFEAFFE5CFE9FFE5CFDAFFE5CFD9FFC6
:1038B000E5CFE0FFE5CFE8FFE8AE06D0E5CFD8FFE3
:1038C000E5CFE8FF100005D0E5CFD8FFE5CFE8FF52
:1038D00012001200E8CFE4FFD8CFE4FFF2CFE8FFF8
:1038E0008009E8CFE4FFF29EE0CFE4FFD9CFE4FF08
:1038F000DACFE4FFE9CFE4FFEACFE4FFF5CFE4FF5E
:10390000F8CFE4FFF7CFE4FFF6CFE4FFF4CFE4FF16
:10391000F3CFE4FFFBCFE4FFFACFE4FFE96AEA6A02
:10392000EECFE4FFEECFE4FFEECFE4FFEECFE4FF17
:10393000EECFE4FFEECFE4FFEECFE4FFEECFE4FF07
:10394000EECFE4FFEECFE4FFEECFE4FFEECFE4FFF7
:10395000EECFE4FFEECFE4FFEECFE4FFEECFE4FFE7
:10396000EECFE4FFEECFE4FFEECFE4FFEECFE4FFD7
:10397000EECFE4FFEECFE4FFEECFE4FFEECFE4FFC7
:10398000EECFE4FFEECFE4FFEECFE4FFEECFE4FFB7
:10399000EECFE4FFEFCFE4FFE9CFE4FFEACFE4FFAF
:1039A000FCCFE9FFFC50000808E2FDCFE4FFFECFAA
:1039B000E4FFFFCFE4FF0600F5D7E9CFE4FFE452D0
:1039C000E0C8E9FFE1C8EAFFE1CFEEFFE2CFEEFF9A
:1039D0009E94E9EC04F0000902E050EC06F0E0C827
:1039E000E9FFE1C8EAFFEECFE1FFEECFE2FFE5CF6E
:1039F000E9FFE5CFE9FFFC6AE950FC5C08E205005D
:103A0000E550FF6EE550FE6EE550FD6EF5D7E5CF53
:103A1000EAFFE5CFE9FFE5CFEDFFE5CFEDFFE5CF2D
:103A2000EDFFE5CFEDFFE5CFEDFFE5CFEDFFE5CF16
:103A3000EDFFE5CFEDFFE5CFEDFFE5CFEDFFE5CF06
:103A4000EDFFE5CFEDFFE5CFEDFFE5CFEDFFE5CFF6
:103A5000EDFFE5CFEDFFE5CFEDFFE5CFEDFFE5CFE6
:103A6000EDFFE5CFEDFFE5CFEDFFE5CFEDFFE5CFD6
:103A7000EDFFE5CFEDFFE5CFEDFFE5CFEDFFE5CFC6
:103A8000EDFFE5CFEDFFE5CFEDFFE5CFEFFFE5CFB4
:103A9000FAFFE5CFFBFFE5CFF3FFE5CFF4FFE5CF7E
:103AA000F6FFE5CFF7FFE5CFF8FFE5CFF5FFE5CF70
:103AB000EAFFE5CFE9FFE5CFDAFFE5CFD9FFE5CFB4
:103AC000E0FFE5CFE8FFE8AE06D0E5CFD8FFE5CFD1
:103AD000E8FF100005D0E5CFD8FFE5CFE8FF1200E2
:103AE0001200D9CFE6FFDACFE6FFE1CFD9FFE2CF70
:103AF000DAFF090EE12402E3E168E652E16EE00E2E
:103B0000DE6E2E0EDE6EDE6ADD6ADD52DD52CF6ABB
:103B1000CE6AD9CFE9FFDACFEAFF040EEECFDBFFA2
:103B2000050EEECFDBFF060EEECFDBFF070EEECF6E
:103B3000DBFF040EDBCF10F0050EDBCF11F0060E1D
:103B4000DBCF12F0070EDBCF13F01050BB6ED95055
:103B5000040FE96E000EDA20EA6E080EE76ED890C8
:103B6000030EEB32020EEB32010EEB32EF32E706C0
:103B7000F6E1040EDBCF10F0050EDBCF11F0060EE0
:103B8000DBCF12F0070EDBCF13F01050BC6EBA8003
:103B9000BA82BA94BA869D84F28C7B0EE66E850E4C
:103BA000E66EF9EC2BF0E552E552090EE15C02E21B
:103BB000E16AE552E16EE552E5CFDAFFE7CFD9FFE2
:023BC0001200F1
:0E3BC200D9CFE6FFDACFE6FFE1CFD9FFE2CFA1
:103BD000DAFFFC0EDBCFE9FFFD0EDBCFEAFF030EC1
:103BE000E926000EEA22E9CF10F0EACF11F0FC0E30
:103BF000DBCFE9FFFD0EDBCFEAFFEE5210C0EEFF98
:103C000011C0EDFFFC0EDBCFE9FFFD0EDBCFEAFFBD
:103C1000030EE926000EEA22EE68ED68FC0EDBCF0B
:103C2000E9FFFD0EDBCFEAFF030EE926000EEA22D4
:103C3000E9CF10F0EACF11F0FC0EDBCFE9FFFD0E6B
:103C4000DBCFEAFF030EE926000EEA22020EE92688
:103C5000000EEA2210C0EEFF11C0EDFFFC0EDBCF1C
:103C6000E9FFFD0EDBCFEAFF030EE926000EEA2294
:103C7000E9CF10F0EACF11F0FC0EDBCFE9FFFD0E2B
:103C8000DBCFEAFF030EE926000EEA22040EE92646
:103C9000000EEA2210C0EEFF11C0EDFFFC0EDBCFDC
:103CA000E9FFFD0EDBCFEAFFEF6AE552E5CFDAFF71
:103CB000E7CFD9FF1200D9CFE6FFDACFE6FFE1CF99
:103CC000D9FFE2CFDAFFFC0EDBCFE9FFFD0EDBCF41
:103CD000EAFF080EEB6A090EEB6AE552E5CFDAFF60
:103CE000E7CFD9FF1200D9CFE6FFDACFE6FFE1CF69
:103CF000D9FFE2CFDAFFE652E652FC0EDBCFE9FF56
:103D0000FD0EDBCFEAFFEE52EECFDEFFEDCFDDFFA3
:103D1000FA0EDBCFE9FFFB0EDBCFEAFF020EE9264E
:103D2000000EEA22DECFEEFFDDCFEDFFDECFE9FFB2
:103D3000DDCFEAFF040EE926000EEA22EECF10F0F6
:103D4000EFCF11F0FA0EDBCFE9FFFB0EDBCFEAFF7E
:103D5000040EE926000EEA2210C0EEFF11C0EDFFAE
:103D6000DECFE9FFDDCFEAFF040EE926000EEA22EE
:103D7000EE50EFCFEAFFE96E020EE926000EEA22CE
:103D8000FA0EDBCFEEFFFB0EDBCFEDFFDECFE9FF60
:103D9000DDCFEAFF040EE926000EEA22FA0EDBCFA1
:103DA000EEFFFB0EDBCFEDFFFA0EDBCFE9FFFB0EE4
:103DB000DBCFEAFF080EE926000EEA22FC0EDBCF7D
:103DC000EEFFFD0EDBCFEDFFFC0EDBCFE9FFFD0EBE
:103DD000DBCFEAFFEF2AE552E552E552E5CFDAFF05
:103DE000E7CFD9FF1200D9CFE6FFDACFE6FFE1CF68
:103DF000D9FFE2CFDAFFE652E652E652E652FA0E79
:103E0000DBCFE9FFFB0EDBCFEAFF020EEECFDBFFDD
:103E1000030EEDCFDBFFD950020FE96E000EDA2062
:103E2000EA6EFF0EEE1802E1FF0EED1813E1FC0E34
:103E3000DBCFE9FFFD0EDBCFEAFF030EE926000E24
:103E4000EA22040EE926000EEA22EECFDEFFEDCFD5
:103E5000DDFF3AD0FC0EDBCFE9FFFD0EDBCFEAFF42
:103E6000030EE926000EEA22E9CF10F0EACF11F0A6
:103E700010C0DEFF11C0DDFFDECFE9FFDDCFEAFFBE
:103E8000020EE926000EEA22EE50EFCFEAFFE96EBD
:103E9000EECF10F0EFCF11F0020EDBCF12F0030ED9
:103EA000DBCF13F01050125C115013580DE3DECF2E
:103EB000E9FFDDCFEAFF020EE926000EEA22EECF8F
:103EC000DEFFEDCFDDFFD8D7DECFE9FFDDCFEAFFA4
:103ED000020EE926000EEA22EECF10F0EFCF11F02D
:103EE000FA0EDBCFE9FFFB0EDBCFEAFF020EE9267D
:103EF000000EEA2210C0EEFF11C0EDFFFA0EDBCF7C
:103F0000E9FFFB0EDBCFEAFF020EE926000EEA22F4
:103F1000EE50EFCFEAFFE96E040EE926000EEA222A
:103F2000FA0EDBCFEEFFFB0EDBCFEDFFFA0EDBCFA1
:103F3000E9FFFB0EDBCFEAFF040EE926000EEA22C2
:103F4000DECFEEFFDDCFEDFFDECFE9FFDDCFEAFF15
:103F5000020EE926000EEA22FA0EDBCFEEFFFB0E80
:103F6000DBCFEDFFFA0EDBCFE9FFFB0EDBCFEAFF85
:103F7000080EE926000EEA22FC0EDBCFEEFFFD0E56
:103F8000DBCFEDFFFC0EDBCFE9FFFD0EDBCFEAFF61
:103F9000EF2A040EE15C02E2E16AE552E16EE552CD
:103FA000E5CFDAFFE7CFD9FF1200D9CFE6FFDACFAE
:103FB000E6FFE1CFD9FFE2CFDAFFE652E652FC0E90
:103FC000DBCFE9FFFD0EDBCFEAFF080EE926000E8E
:103FD000EA22EECFDEFFEDCFDDFFFC0EDBCFE9FF07
:103FE000FD0EDBCFEAFF040EE926000EEA22EECF3B
:103FF00010F0EFCF11F0FC0EDBCFE9FFFD0EDBCFB1
:10400000EAFF020EE926000EEA22EE50EFCFEAFFA9
:10401000E96E040EE926000EEA2210C0EEFF11C080
:10402000EDFFFC0EDBCFE9FFFD0EDBCFEAFF020E5A
:10403000E926000EEA22EECF10F0EFCF11F0FC0ED1
:10404000DBCFE9FFFD0EDBCFEAFF040EE926000E11
:10405000EA22EE50EFCFEAFFE96E020EE926000EEB
:10406000EA2210C0EEFF11C0EDFFDECFE9FFDDCF89
:10407000EAFFEE52EECF10F0EFCF11F0FC0EDB5066
:10408000101803E1FD0EDB50111818E1FC0EDBCF18
:10409000E9FFFD0EDBCFEAFF040EE926000EEA225F
:1040A000EECF10F0EFCF11F0DECFE9FFDDCFEAFF6A
:1040B000EE5210C0EEFF11C0EDFF00D0FC0EDBCFC2
:1040C000E9FFFD0EDBCFEAFF080EEB6A090EEB6A93
:1040D000DECFE9FFDDCFEAFFEF06DECFE9FFDDCF80
:1040E000EAFFEF5000D0E552E552E552E5CFDAFFA6
:0640F000E7CFD9FF12002A
:0A40F60012001200D9CFE6FFDACF66
:10410000E6FFE1CFD9FFE2CFDAFFE652E652E65210
:10411000E652E652FCD99BEC2BF00801010EF26F3F
:104120000801F36BF46B460E0801F56FF66B08019E
:10413000F76BF86B320E0801F96FFA6B0801FB6B35
:10414000FC6B0801FD6BFE6B30EC2BF0FDEC29F0F5
:10415000EDEC29F0000EE66EE66A000EE66EE66A09
:10416000000EE66EE66A020EE66E000EE66EE66A87
:10417000DC0EE66EE66A6A0EE66E590EE66EBC0E60
:10418000E66E420EE66E26EC00F0106E0F0EE15C5D
:1041900002E2E16AE552E16E1050DF6E000EE66E5B
:1041A000E66A000EE66EE66A000EE66EE66A010E4C
:1041B000E66E000EE66EE66ADC0EE66EE66A670EF6
:1041C000E66E590EE66E1A0EE66E440EE66E26ECAC
:1041D00000F0106E0F0EE15C02E2E16AE552E16E62
:1041E0001050E76E010EE7CFDBFF000EE66EE66AC9
:1041F000000EE66EE66A000EE66EE66A010EE66EF8
:10420000000EE66EE66ADC0EE66EE66A640EE66EA8
:10421000590EE66E3C0EE66E440EE66E26EC00F09D
:10422000106E0F0EE15C02E2E16AE552E16E1050A1
:10423000E76E020EE7CFDBFF000EE66EE66A000EC9
:10424000E66EE66A000EE66EE66A010EE66E000EA7
:10425000E66EE66ADC0EE66EE66A610EE66E590E02
:10426000E66EBE0EE66E440EE66E26EC00F0106EB4
:104270000F0EE15C02E2E16AE552E16E1050E76E7A
:10428000030EE7CFDBFFDF0409E1010EDB0406E1EB
:10429000020EDB0403E1030EDB0401E0FFD76FEC49
:1042A00003F0FFD7050EE15C02E2E16AE552E16E40
:1042B000E552E5CFDAFFE7CFD9FF1200D9CFE6FF0D
:1042C000DACFE6FFE1CFD9FFE2CFDAFFE652E652DE
:1042D000010EDE6EDD6A0801DF51010A20E0010AED
:1042E00001E02AD00801F2050DE1F30EE66E080E9A
:1042F000E66E68EC28F0E552E552F3CFDEFFF4CF2E
:10430000DDFF0CD0F70EE66E080EE66E68EC28F0C6
:10431000E552E552F3CFDEFFF4CFDDFF0DD0FB0E0B
:10432000E66E080EE66E68EC28F0E552E552F3CF33
:10433000DEFFF4CFDDFF00D0C80E0801D525E96E01
:10434000080E0801D621EA6EEF508C6E010E8A6EBF
:10435000050EE66EE66A11EC03F0E552E552C80E72
:104360000801D725E96E080E0801D821EA6EEF5042
:104370008C6E020E8A6E050EE66EE66A11EC03F094
:10438000E552E552D9CFE9FFDACFEAFF010EEE1888
:1043900001E1ED5002E1800E01D0000E106EC80E5A
:1043A0000801D925E96E080E0801DA21EA6EEF50FE
:1043B00010108C6E040E8A6E050EE66EE66A11EC25
:1043C00003F0E552E552D9CFE9FFDACFEAFF010E5B
:1043D000EE1801E1ED5002E1000E01D0800E106EEA
:1043E000C80E0801DB25E96E080E0801DC21EA6E23
:1043F000EF5010108C6E080E8A6E050EE66EE66A9F
:1044000011EC03F0E552E55266D7E552E552E5526C
:10441000E5CFDAFFE7CFD9FF1200D9CFE6FFDACF39
:10442000E6FFE1CFD9FFE2CFDAFFA6EC24F0FDD71B
:10443000E552E5CFDAFFE7CFD9FF1200D9CFE6FF8B
:10444000DACFE6FFE1CFD9FFE2CFDAFFE652E6525C
:10445000DE6ADD6AA1EC24F079EC0DF0F3CFDEFF2B
:10446000F4CFDDFFEE0EE66E020EE66E11EC03F009
:10447000E552E552D9CFE9FFDACFEAFFEE50ED1071
:1044800006E0CBEC0DF0F3CFDEFFF4CFDDFFD9CFAC
:10449000E9FFDACFEAFFEE50ED1008E0FB0EE66E22
:1044A000080EE66EF7EC0DF0E552E552D3D7E55273
:1044B000E552E552E5CFDAFFE7CFD9FF1200D9CFB9
:1044C000E6FFDACFE6FFE1CFD9FFE2CFDAFF08015E
:1044D000010EF26F610EE66E32EC29F0E552080132
:1044E000DF51010A08E0010A01E00AD0ACEC22F039
:1044F0000801DF6F05D0E3EC22F00801DF6F00D088
:10450000EED7E552E5CFDAFFE7CFD9FF1200D9CFDA
:10451000E6FFDACFE6FFE1CFD9FFE2CFDAFFE652DE
:10452000E652580EDE6E020EDD6E6C0ED36E9B8C64
:10453000DFCF10F0DF06010EDBCF11F001E2DB066A
:104540001050111001E0F4D7E552E552E552E5CFE5
:08455000DAFFE7CFD9FF1200EA
:084558000801040EDD1901E168
:10456000DE5101E0F9D7030E0801DD1901E1DE514A
:104570001FE0020E0801DD1901E1DE5118E0010E15
:104580000801DD1901E1DE5109E00801DD5101E119
:10459000DE5101E014D00801F25114D00801010EDF
:1045A000F26F610EE66E32EC29F0E55208D007D0CA
:1045B000630EE66E32EC29F0E5523DD900D0D3D738
:1045C000000E00D01200D9CFE6FFDACFE6FFE1CF30
:1045D000D9FFE2CFDAFFE652E652E652E652E65261
:1045E000DF6A27EC2BF0DF50020A01E1CCD0030A8E
:1045F00001E17FD0010A01E0C8D0F7EC29F0010EFB
:10460000FBC8DBFF020EFCC8DBFF030EFDC8DBFFAF
:10461000040EFEC8DBFFDF506BE1FB0EE66E080EFA
:10462000E66EFAEC25F0E552E552F3CF10F0F4CF48
:1046300011F0010E101801E1115004E130EC2BF0E3
:10464000010EDF6E0A0EE66EE66A01EC2AF0E55214
:10465000E552F3CF10F0F4CF11F0010E101801E184
:10466000115034E1000EE66EE66AD950010FE66E95
:10467000000EDA20E66EFB0EE66E080EE66E26EC05
:1046800026F0126E060EE15C02E2E16AE552E16E8E
:104690001250F3CF10F0F4CF11F0010E101801E119
:1046A000115006E1FDEC29F030EC2BF0020EDF6E2C
:1046B000010EFBC8DBFF020EFCC8DBFF030EFDC8CA
:1046C000DBFF040EFEC8DBFFF7EC29F00801010E4A
:1046D000DD1901E1DE5104E130EC2BF0020EDF6E5A
:1046E0000801F15104E130EC2BF0020EDF6E93D79C
:1046F0004CD0F7EC29F0DF0445E1FB0EE66EE668EE
:10470000F30EE66E080EE66EFB0EE66E080EE66E23
:1047100026EC26F0126E060EE15C02E2E16AE5523A
:10472000E16E1250F3CF10F0F4CF11F0010E10181B
:1047300001E1115015E1050EE66EE66A01EC2AF082
:10474000E552E552F3CF13F0F4CF14F0010E131835
:1047500001E1145005E127EC2BF0FDEC29F0DF6AB4
:104760000801010EDD1901E1DE5104E130EC2BF00E
:10477000020EDF6E0801F15104E130EC2BF0020E65
:10478000DF6EB9D702D0000E03D02DD7010E00D0B6
:10479000106E050EE15C02E2E16AE552E16E105036
:1047A000E552E5CFDAFFE7CFD9FF1200D9CFE6FF18
:1047B000DACFE6FFE1CFD9FFE2CFDAFF070EE1243F
:1047C00002E3E168E652E16E050EDB6A060EDB6A83
:1047D000010EDF6E30EC2BF0DF50020A19E0030A05
:1047E00007E0010A01E016D0DF5001E1FDD712D049
:1047F000DF040DE1D950050FE96E000EDA20EA6EF4
:10480000010EEE1801E1ED5001E100D0F1D702D028
:10481000000E03D0E1D7020E00D0106E070EE15C4F
:1048200002E2E16AE552E16E1050E552E5CFDAFFAF
:10483000E7CFD9FF12000801DD5101E1DE5169E047
:10484000020E0801DD1901E1DE5133E0010E08011D
:10485000DD1901E1DE5101E072D00801F20511E13C
:104860000801F52B000EF6230801F63504E2F55198
:104870005A08000EF65504E25A0E0801F56FF66B61
:1048800010D00801F92B000EFA230801FA3504E2D2
:10489000F9515A08000EFA5504E25A0E0801F96F50
:1048A000FA6B0801040EDD1901E1DE5101E0F9D7D0
:1048B00046D00801F20513E10801F507000EF65B8A
:1048C000320E0801F6AF02D0D89003D0F55D000E8D
:1048D000F65904E2320E0801F56FF66B12D00801AA
:1048E000F907000EFA5B320E0801FAAF02D0D89039
:1048F00003D0F95D000EFA5904E2320E0801F96F97
:10490000FA6B0801040EDD1901E1DE5101E0F9D76F
:1049100016D00801F20506E1610EE66E32EC29F0D0
:10492000E55205D0620EE66E32EC29F0E552080140
:10493000040EDD1901E1DE5101E0F9D701D07BD78A
:02494000120063
:0E4942007050010B0801F16F120005D8F3CF81
:10495000DDF8F4CFDEF81200D9CFE6FFDACFE6FFBC
:10496000E1CFD9FFE2CFDAFF0A0EE12402E3E168EA
:10497000E652E16E070E8414E66ED950040FE96E1C
:10498000000EDA20EA6EE552E750EE6EED6A020E96
:104990008214E66ED950060FE96E000EDA20EA6E38
:1049A000E552E750EE6EED6A040EDBCF14F0050E13
:1049B000DBCF15F0D89014361536060EDBCF16F087
:1049C000070EDBCF17F0D89017321632145016109E
:1049D000106E15501710116E126A136A11AE02D0C4
:1049E0001268136810C0DEFF11C0DDFFFDD8D9CFFB
:1049F000E9FFDACFEAFF020EEECFDBFF030EEDCFC9
:104A0000DBFF070E8414E66ED950040FE96E000E2A
:104A1000DA20EA6EE552E750EE6EED6A020E82147D
:104A2000E66ED950060FE96E000EDA20EA6EE55206
:104A3000E750EE6EED6A040EDBCF14F0050EDBCF0F
:104A400015F0D89014361536060EDBCF16F0070E8B
:104A5000DBCF17F0D8901732163214501610106EA4
:104A600015501710116E126A136A11AE02D0126837
:104A7000136810C0DEFF11C0DDFF020EDB50DF182F
:104A800004E1030EDB50DE52DD1848E1ADD8D9CF8A
:104A9000E9FFDACFEAFF020EEECFDBFF030EEDCF28
:104AA000DBFF070E8414E66ED950040FE96E000E8A
:104AB000DA20EA6EE552E750EE6EED6A020E8214DD
:104AC000E66ED950060FE96E000EDA20EA6EE55266
:104AD000E750EE6EED6A040EDBCF14F0050EDBCF6F
:104AE00015F0D89014361536060EDBCF16F0070EEB
:104AF000DBCF17F0D8901732163214501610106E04
:104B000015501710116E126A136A11AE02D0126896
:104B1000136810C0DEFF11C0DDFF01D067D70F0E94
:104B2000DF1A000EDBCF08F0010EDBCF09F0080E14
:104B3000081801E1095031E0040E081801E109509C
:104B400024E0020E081801E1095017E0010E0818D0
:104B500001E109500DE0085001E1095001E025D0C4
:104B6000040EF36E080EF3CFDBFF090EDB6A25D0CF
:104B7000080EDB6A090EDB6A20D0010EF36E080E08
:104B8000F3CFDBFF090EDB6A18D0020EF36E080EBE
:104B9000F3CFDBFF090EDB6A10D0030EF36E080EB5
:104BA000F3CFDBFF090EDB6A08D0050EF36E080EAB
:104BB000F3CFDBFF090EDB6A00D0080EDBCF10F06D
:104BC000090EDBCF11F010C0F3FF11C0F4FF00D0CD
:104BD0000A0EE15C02E2E16AE552E16EE552E5CFE0
:104BE000DAFFE7CFD9FF1200180EE66E73EC2CF057
:044BF000E552120078
:0C4BF400D9CFE6FFDACFE6FFE1CFD9FF12
:104C0000E2CFDAFFFC0EDBCFE9FFFD0EDBCFEAFFE0
:104C1000020EE926000EEA22EECF10F0EFCF11F0DF
:104C2000D890115004E65F0E105C000E115805E399
:104C3000010EF36EF46A04D003D0F36AF46A00D074
:104C4000E552E5CFDAFFE7CFD9FF1200D9CFE6FF73
:104C5000DACFE6FFE1CFD9FFE2CFDAFFFC0EDBCF00
:104C6000E9FFFD0EDBCFEAFF020EE926000EEA2285
:104C7000EECF10F0EFCF11F0F80EDBCF14F0F90EFD
:104C8000DBCF15F0FA0EDBCFE9FFFB0EDBCFEAFF3F
:104C9000020EE926000EEA221450EE24126E155080
:104CA000EE20136E11501318E8AE02D0133404D066
:104CB0001250105C1350115805E2010EF36EF46AA5
:104CC00052D051D0FC0EDBCFE9FFFD0EDBCFEAFF67
:104CD000020EE926000EEA22EECF10F0EFCF11F01F
:104CE000F80EDBCF14F0F90EDBCF15F0FA0EDBCFA8
:104CF000E9FFFB0EDBCFEAFF020EE926000EEA22F7
:104D00001450EE24126E1550EE20136E125010182F
:104D100002E11350111824E1FC0EDBCFE9FFFD0E78
:104D2000DBCFEAFFEECF10F0EFCF11F0FA0EDBCFC2
:104D3000E9FFFB0EDBCFEAFFEECF12F0EFCF13F06F
:104D400013501118E8AE02D0113404D01050125C88
:104D50001150135804E3010EF36EF46A04D003D02B
:104D6000F36AF46A00D0E552E5CFDAFFE7CFD9FF66
:104D70001200D9CFE6FFDACFE6FFE1CFD9FFE2CFCD
:104D8000DAFFFC0EDBCFE9FFFD0EDBCFEAFF020E00
:104D9000E926000EEA22EECF10F0EFCF11F0F80E68
:104DA000DBCF14F0F90EDBCF15F0FA0EDBCFE9FF05
:104DB000FB0EDBCFEAFF020EE926000EEA221450BA
:104DC000EE24126E1550EE20136E13501118E8AE3B
:104DD00002D0113404D01050125C1150135805E267
:104DE000010EF36EF46A52D051D0FC0EDBCFE9FF16
:104DF000FD0EDBCFEAFF020EE926000EEA22EECF1F
:104E000010F0EFCF11F0F80EDBCF14F0F90EDBCF7E
:104E100015F0FA0EDBCFE9FFFB0EDBCFEAFF020E47
:104E2000E926000EEA221450EE24126E1550EE20F0
:104E3000136E1250101802E11350111824E1FC0EE9
:104E4000DBCFE9FFFD0EDBCFEAFFEECF10F0EFCFB7
:104E500011F0FA0EDBCFE9FFFB0EDBCFEAFFEECF5E
:104E600012F0EFCF13F011501318E8AE02D0133444
:104E700004D01250105C1350115804E3010EF36E6D
:104E8000F46A04D003D0F36AF46A00D0E552E5CFA7
:084E9000DAFFE7CFD9FF1200A1
:084E9800C4D8CED8C5A406D091
:104EA000A1A603D0F36AF46A05D0F8D7010EF36E19
:104EB000F46A00D01200B5D8C3D8C5A006D0A1A608
:104EC00003D0F36AF46A05D0F8D7010EF36EF46AE2
:104ED00000D01200A6D8B8D8C5A006D0A1A603D08D
:104EE000F36AF46A06D0F8D79CD8010EF36EF46A20
:104EF00000D01200D9CFE6FFDACFE6FFE1CFD9FF2D
:104F0000E2CFDAFFFD0EDBCFE6FFA2D8E5520009C3
:104F100003E0F36AF46A17D0C5BC05D0010EF36E46
:104F2000F46A11D00CD0D950FB0FE96EFF0EDA20D5
:104F3000EA6EEE50ED1003E0F36AF46A04D0010E5D
:104F4000F36EF46A00D0E552E5CFDAFFE7CFD9FF80
:104F50001200D9CFE6FFDACFE6FFE1CFD9FFE2CFEB
:104F6000DAFFE652E652010EDE6EDD6ADECFE6FFC4
:104F7000DDCFE6FFFC0EDBCFE6FFFD0EDBCFE6FF6D
:104F800080D8E552E552E552E552000902E0000EF4
:104F900012D0D950FA0FE96EFF0EDA20EA6E010E38
:104FA000EE1801E1ED5002E18ED801D087D8C5B8E6
:104FB000FED7010E00D0E552E552E552E5CFDAFF0B
:104FC000E7CFD9FF1200D9CFE6FFDACFE6FFE1CF76
:104FD000D9FFE2CFDAFFE65250D8DF6ED950FC0F8E
:104FE000E96EFF0EDA20EA6E010EEE1801E1ED50D7
:104FF00002E169D801D062D8C5B8FED7DF5000D031
:10500000E552E552E5CFDAFFE7CFD9FF1200E66AB5
:10501000080EE66E1CEC2CF0E552E5521D0EC86E33
:105020001200C750040B01E0010E106E1F0EC514D4
:10503000101001E0F6D71200C584C5B4FED71200E7
:10504000C580C5B0FED71200C582C5B2FED712001A
:10505000D9CFE6FFDACFE6FFE1CFD9FFE2CFDAFF23
:10506000FD0EDBCFE6FFACEC2AF0E55200D0E552B6
:10507000E5CFDAFFE7CFD9FF1200A1EC2CF000D08A
:105080001200D9CFE6FFDACFE6FFE1CFD9FFE2CFBA
:10509000DAFFFA0EDBCFE6FFFC0EDBCFE6FFFD0EFC
:1050A000DBCFE6FFECEC2AF0E552E552E55200D00A
:1050B000E552E5CFDAFFE7CFD9FF1200C58AC588F0
:1050C000C5B8FED71200C59AC588C5B8FED712006C
:1050D000D9CFE6FFDACFE6FFE1CFD9FFE2CFDAFFA3
:1050E000FC0EDBCFE9FFFD0EDBCFEAFF020EE92667
:1050F000000EEA22EECF10F0EFCF11F0D890115051
:1051000004E6640E105C000E115862E3FC0EDBCF67
:10511000E9FFFD0EDBCFEAFF020EE926000EEA22D0
:10512000EECFD7F8EFCFD8F8640E0D6E0E6AD7C861
:1051300008F0D8C809F0D3EC2BF008C0D7F809C0A4
:10514000D8F8FC0EDBCFE9FFFD0EDBCFEAFF020E45
:10515000E926000EEA22EECFD9F8EFCFDAF8640E96
:105160000D6E0E6AD9C808F0DAC809F0D3EC2BF03E
:1051700004C0D9F805C0DAF80A0E0D6E0E6AD9C857
:1051800008F0DAC809F0D3EC2BF008C0D9F809C050
:10519000DAF8FC0EDBCFE9FFFD0EDBCFEAFF020EF3
:1051A000E926000EEA22EECFDBF8EFCFDCF80A0E9C
:1051B0000D6E0E6ADBC808F0DCC809F0D3EC2BF0EA
:1051C00004C0DBF805C0DCF8F36AF46A45D044D0CB
:1051D000FC0EDBCFE9FFFD0EDBCFEAFF020EE92676
:1051E000000EEA22EECFD7F8EFCFD8F80A0E0D6EF8
:1051F0000E6AD7C808F0D8C809F0D3EC2BF008C065
:10520000D7F809C0D8F8FC0EDBCFE9FFFD0EDBCFE5
:10521000EAFF020EE926000EEA22EECFD9F8EFCF20
:10522000DAF80A0E0D6E0E6AD9C808F0DAC809F06D
:10523000D3EC2BF004C0D9F805C0DAF8FC0EDBCFB4
:10524000E9FFFD0EDBCFEAFFEECFDBF8EDCFDCF8B8
:10525000010EF36EF46A00D0E552E5CFDAFFE7CF36
:10526000D9FF1200D9CFE6FFDACFE6FFE1CFD9FFB1
:10527000E2CFDAFFFD0EDB50630A0FE0010A08E01F
:10528000030A01E00FD00A0E0801D56FD66B0AD0D1
:105290000B0E0801D56FD66B05D00C0E0801D56F2B
:1052A000D66B00D0E552E5CFDAFFE7CFD9FF120089
:1052B000D9CFE6FFDACFE6FFE1CFD9FFE2CFDAFFC1
:1052C000E652E652DE6ADD6AB7EC03F00E011451D5
:1052D00015110AE1610E106E000E116E126A136A4A
:1052E00010C014FE11C015FEFC0EDB500E0112257D
:1052F0000001106EFD0EDB500E0113210001116E36
:10530000FF0E105C070E11582EE2FC0EDB500E0152
:1053100012250001126EFD0EDB500E01132100015B
:10532000136E0E011250125D135013591CE20E0140
:105330000E0114510E011225106E0E010E011551B1
:105340000E011321116E10C0DEFF11C0DDFFFC0E37
:10535000DBCF08F0FD0EDBCF09F008500E0112275D
:1053600009500E011323BAEC03F0DECF10F0DDCFAD
:1053700011F010C0F3FF11C0F4FF00D0E552E55268
:10538000E552E5CFDAFFE7CFD9FF1200D9CFE6FF2C
:10539000DACFE6FFE1CFD9FFE2CFDAFFE552E5CF82
:1053A000DAFFE7CFD9FF12000E01126B136B120068
:1053B00012CE10F013CE11F0FF0ED8801056070E4B
:0E53C000115610C0F3FF11C0F4FF00D0120010
:0253CE000E01CE
:1053D0000A510B1101E03DD812000E010C6B0D6B50
:1053E0000E010E6B0F6B0E01106B116B1200F5DFCF
:1053F000010E0E010A6F0B6B12000E010A6B0B6B94
:105400001200D9CFE6FFDACFE6FFE1CFD9FFE2CF36
:10541000DAFFFC0EDBCF10F0FD0EDBCF11F00E013A
:1054200011511118E8AE02D0113404D01050105DA3
:105430001150115905E3010EF36EF46A04D003D044
:10544000F36AF46A00D0E552E5CFDAFFE7CFD9FF7F
:1054500012000E010C2B000E0D230E01D8900D51E1
:1054600004E6E80E0C5D030E0D5907E30E010E2B4A
:10547000000E0F230E010C6B0D6B3C0E0E010FAFD7
:1054800002D0D89003D00E5D000E0F5907E30E0135
:10549000102B000E11230E010E6B0F6B0E01D89016
:1054A000115104E6E80E105D030E115905E30E01DB
:0A54B000E80E106F030E116F1200DA
:0654BA00260EF66E000E46
:1054C000F76E000EF86E0E010900F550056F090029
:1054D000F550066F03E1056701D03DD00900F55096
:1054E000006F0900F550016F0900F550026F0900C7
:1054F0000900F550E96E0900F550EA6E090009004F
:105500000900F550036F0900F550046F0900090008
:10551000F6CF07FEF7CF08FEF8CF09FE00CEF6FF64
:1055200001CEF7FF02CEF8FF0E01035302E1045350
:1055300007E00900F550EE6E0307F8E20407F9D71B
:1055400007CEF6FF08CEF7FF09CEF8FF0E010507DC
:08555000000E065BBFD712003C
:08555800D9CFE6FFDACFE6FF30
:10556000E1CFD9FFE2CFDAFFFD0EDB50C96EC6AE48
:1055700002D0FF0E2BD00F0EC61408080FE00F0E3E
:10558000C6140B080BE0C6889EA6FED7C750040BB6
:1055900003E1C750010B17E0000E18D00F0EC61420
:1055A000080804E00F0EC6140B0810E1C7B0FED7C0
:1055B000C750040B01E0010E106E1F0EC514101031
:1055C000F7E1C5AC02D0FE0E01D0000EE552E5CFEA
:0855D000DAFFE7CFD9FF12005A
:0855D800D9CFE6FFDACFE6FFB0
:1055E000E1CFD9FFE2CFDAFFFB0EDBCFF3FFDB0623
:1055F000F350000925E0A1EC2CF0E66EFC0EDBCFA9
:10560000E9FFDB2AFD0EDBCFEAFF01E3DB2AE552EF
:10561000E750EF6EC5B6FED7A1A602D0FF0E11D09F
:105620000F0EC614080804E00F0EC6140B08DCE1C8
:10563000FB0EDB50D9E0C59AC588C5A8D5D7FDD7E4
:0E564000000EE552E5CFDAFFE7CFD9FF1200EA
:02564E008B943B
:105650006D0EE66E590EE66E0CD8E552E55212005C
:105660008B846D0EE66E590EE66E03D8E552E55258
:105670001200D9CFE6FFDACFE6FFE1CFD9FFE2CFC4
:10568000DAFFFC0EDBCFF6FFFD0EDBCFF7FF0800E5
:10569000F55012E0ADA2FED7FC0EDBCFF6FFDB2A01
:1056A000FD0EDBCFF7FF01E3DB2A0800F550E66EC5
:1056B00035EC2CF0E552E5D7E552E5CFDAFFE7CF40
:0456C000D9FF1200FC
:0C56C400D9CFE6FFDACFE6FFE1CFD9FF37
:1056D000E2CFDAFFAD6AAC6AFD0EDBB0AD88DBA2CB
:1056E00002D0AD8CAC8CDBB4AD8EDBA602D0AC8826
:1056F00001D0AC8ADBB8AD84DBBAAC86DBAC02D0BF
:105700009D8A01D09D9ADBAE02D09D8801D09D98E4
:10571000FB0EDB50B06EFC0EDBCF11F011C010F0B1
:10572000116A10507F6EAD8AAC8EE552E5CFDAFF7C
:06573000E7CFD9FF1200D3
:0A5736000B0E926EF00E936E956A52
:10574000820E946E070E966E0F01F60E486F0E01D4
:10575000010EC86F05D815D823D820D88A6A120040
:10576000E10EE66E040EE66E3C0EE66E62EC2BF089
:10577000E552E552E552CC0EE66E62EC2CF0E552B5
:105780001200D28ED28CD29AE70ED2140009D26EB9
:10579000D294FC0ED2140009D26E12008984120039
:0657A00007EC28F01200E6
:0A57A600006A0EAEDCEF2BF00D6C74
:1057B0000E1EE86A0E22001E09AEE4EF2BF0086C04
:1057C000091EE86A0922001E4CEC2CF009BEF4EF19
:1057D0002BF000AE000C086C091EE86A0922046C6C
:1057E000051EE86A0522000C00BEEBEF2BF00188D5
:0257F000FF0CAC
:0E57F200D9CFE6FFDACFE6FFE1CFD9FFE2CF55
:10580000DAFFFC0EDB50F30B9A6EFD0EDB507F0BC4
:10581000E824CD6ECF6ACE6A9E90FD0EDBAE02D03C
:105820009D8001D09D909ABE9A86CD80E552E5CFAD
:08583000DAFFE7CFD9FF1200F7
:08583800D9CFE6FFDACFE6FF4D
:10584000E1CFD9FFE2CFDAFF3F0EC716C66AC56ABD
:10585000FD0EDB50C612FC0EDB50C712C68AE552A5
:0A586000E5CFDAFFE7CFD9FF120011
:06586A00D9CFE6FFDACF02
:10587000E6FFE1CFD9FFE2CFDAFFADAC04D0AD90C7
:105880000801FFB3AD80FD0EDB50AE6EE552E5CFF3
:08589000DAFFE7CFD9FF120097
:08589800056A046A100EE76EB8
:1058A000D89008360936043605360D50045C0E5083
:1058B000055805E30D50045E0E50055A082AE72EE0
:0458C000F0D712000B
:0C58C400D9CFE6FFDACFE6FFE1CFD9FF35
:1058D000E2CFDAFFFD0EDB507E6EE552E5CFDAFF58
:0658E000E7CFD9FF120022
:0A58E600FF0EE350186E480E01D0CB
:1058F0004C0EE76EE72EFED7E76AE72EFED7182E8E
:06590000F7D700001200C1
:0A590600C00EF36E00EE00F00E0E6E
:1059100001D81200EA6002D0EE6AFCD7F350E960C9
:065920001200EE6AFCD744
:0A5926001DEE00F02DEE00F0F86A0F
:10593000019C5DEC2AF003EC00F07DEC20F0FBD73D
:02594000120053
:0E5942000F0EC614080804E00F0EC6140B0862
:0C59500001E1C586C7A0FED7C9501200B7
:04595C0049444C4529
:10596000005434005433005432005431005555551E
:035970005555008A
:0D5973000000000000000000000000000027
:0459800000FFFF0025
:0C5984003F065B4F666D7D077F67777CF8
:0C599000390000000000000000000000D2
:04599C000000000007
:017FF8008CFC
:017FF900F790
:017FFA001274
:017FFB00FF86
:017FFC00F391
:017FFD00F88B
:017FFE00DFA3
:017FFF00F190
:00000001FF
